:020000040800F2
:10000000C8260020D901000831090008930800081B
:100010002D0900086F07000801100008000000000B
:10002000000000000000000000000000590E000861
:100030007307000800000000370E0008910F000849
:10004000F3010008F3010008F3010008F3010008C0
:10005000F3010008F3010008F3010008F3010008B0
:10006000F3010008F3010008F3010008F3010008A0
:10007000F3010008F3010008F3010008F301000890
:10008000F3010008F3010008F3010008F301000880
:10009000F3010008F3010008F3010008F301000870
:1000A000F3010008F3010008F3010008F301000860
:1000B000F3010008F3010008F3010008F301000850
:1000C000F3010008F3010008F3010008F301000840
:1000D000F3010008F3010008F3010008F301000830
:1000E000F3010008F3010008F301000800F002F832
:1000F00000F062F80AA090E8000C82448344AAF160
:100100000107DA4501D100F057F8AFF2090EBAE85D
:100110000F0013F0010F18BFFB1A43F0010318473B
:10012000746C0000946C00000A444FF0000C10F84E
:10013000013B13F0070408BF10F8014B1D1108BF65
:1001400010F8015B641E05D010F8016B641E01F805
:10015000016BF9D113F0080F1EBF10F8014BAD1C55
:100160000C1B09D16D1E58BF01F801CBFAD505E073
:1001700014F8016B01F8016B6D1EF9D59142D6D3CD
:10018000704700000023002400250026103A28BFF5
:1001900078C1FBD8520728BF30C148BF0B607047F9
:1001A000642900F07580752900F072800020704786
:1001B0001FB51FBD10B510BD00F0A4FA1146FFF722
:1001C000F7FF02F0D1FB00F0C2FA03B4FFF7F2FF31
:1001D00003BC00F0C5FA0000094880470948004701
:1001E000FEE7FEE7FEE7FEE7FEE7FEE7FEE7FEE7E7
:1001F000FEE7FEE704480549054A064B7047000044
:10020000A10F0008ED000008C8200020C82600202B
:10021000C8220020C82200200FB41CB5074B06AA34
:100220007B4469460090059800F025FA0020694655
:1002300000F034FA1CBC5DF814FB000079040000E7
:1002400070B5044685690068C10601D5302600E016
:100250002026C00707D070BDD4E901213046904761
:10026000206A401C20626D1EF6D570BD70B5044634
:1002700085690078C00707D170BDD4E9012120202D
:100280009047206A401C20626D1EF6D570BD0000AC
:100290002DE9F0410646002410687529314616A55F
:1002A00010D0AFF30080002802DA404213A507E027
:1002B00031688A0701D512A502E0490704D511A5C6
:1002C000012401E0AFF3008000210A2206F1240797
:1002D00009E0B0FBF2FCB0FBF2F302FB1C00303093
:1002E00078541846491C0028F3D123462A46304644
:1002F000BDE8F04100F060B9000000002D000000F2
:100300002B000000200000002DE9F05F8946044624
:100310004FF0000ADFF874B1FB44C0F820A020467B
:10032000E1688847002874D0252806D0D4E9012147
:100330009047206A401C2062F1E700265F46204675
:10034000E16888472028054607DB312D05D278195A
:1003500010F8200C08B10643F1E7B00701D526F0EC
:100360000406C4F81CA00027C4F818A02A2D09D040
:10037000284601F00BF838B304EB8708303DC8F885
:10038000185019E059F8041B204604EB87029161CC
:10039000E1688847012F054618D1E069002820DA76
:1003A00026F020061DE0D8F8180000EB800005EBD1
:1003B00040003038C8F818002046E16888470546F4
:1003C00000F0E4FF0028EED1012F0AD02E2D08D135
:1003D0002046E16888477F1C0546022F46F020062C
:1003E000C4DBA069002803DA404246F00106A061A0
:1003F000F00701D026F010066C2D0BD0682D09D027
:100400004C2D39D06A2D35D0742D35D07A2D33D07E
:1004100016E038E0E1682F4620468847B842054696
:1004200009D16C2F26D04FF48060E1680643204646
:100430008847054604E06C2F1AD04FF480700643BD
:100440000DB3A5F14100192802D8203546F4006605
:100450004A462946204626604E46FFF7A1FE80B157
:1004600001280BD0F61D26F0070000F1080956E719
:100470004020E4E78020D8E70020D6E706F1040911
:100480004DE7284652E7206ABDE8F09F446A000025
:1004900040EA0103024630B59B0710D14FF001340A
:1004A00000E008C208C91D1B9D4315EAC41FF8D00F
:1004B00013F0FF0102F8011B0DD01B0AF8E711F839
:1004C000013B002B02F8013B05D011F8013B002B4A
:1004D00002F8013BF3D130BD4FF000020429C0F017
:1004E000128010F0030C00F0E080CCF1040CBCF1A1
:1004F000020F18BF00F8012BA8BF20F8022BA1EBB8
:100500000C0100F0D2B85FEAC17C24BF00F8012BD7
:1005100000F8012B48BF00F8012B70474FF0013C59
:1005200050F8042B51F8043B9A4221D1A2EB0C0362
:10053000934313EACC1317D150F8042B51F8043B22
:100540009A4215D1A2EB0C03934313EACC130BD1BF
:1005500050F8042B51F8043B9A4209D1A2EB0C034A
:10056000934313EACC13DBD04FF00000704700BF79
:10057000D01A01BAB1FA81F101F0180122FA01F0A2
:10058000CB40C1F12001DBB2C0B2C01A2CFA01F39A
:10059000D11A914311EAC311E6D1704770477047F1
:1005A000704710B500F0A6F8006810BD10B50446FD
:1005B00000F0A0F8046010BD2DE9F0470D46994603
:1005C0009246044600F124080168880604D5E069D3
:1005D00021F01001216000E00120A84201DD471B4D
:1005E00000E00027A1697A1902EB0900081AA0614E
:1005F0002078C00602D42046FFF722FE002608E03D
:10060000D4E901211AF806009047206A401C761CA4
:1006100020624E45F4DB2078C0060AD52046FFF75D
:100620000FFE06E0D4E9012130209047206A401CEB
:100630002062381EA7F10107F4DC07E0D4E90121AC
:1006400018F805009047206A401C2062281EA5F17A
:100650000105F3DC2046FFF709FE2078000602D5ED
:100660000220BDE8F0870120FBE7000001694A1C79
:1006700002610878704700B58FB0CDE901310021E3
:10068000059105497944CDE9031011466846FFF705
:100690003BFE0FB000BD0000E5FFFFFF0A6802F857
:1006A000010B0A6070474FF0000200B513469446F4
:1006B0009646203922BFA0E80C50A0E80C50B1F1BA
:1006C0002001BFF4F7AF090728BFA0E80C5048BFCE
:1006D0000CC05DF804EB890028BF40F8042B08BF6C
:1006E000704748BF20F8022B11F0804F18BF00F868
:1006F000012B704700487047682000200048704771
:10070000682000207546FFF7F9FFAE4605006946F0
:10071000534620F00700854618B020B5FFF76AFD64
:10072000BDE820404FF000064FF000074FF00008F2
:100730004FF0000B21F00701AC46ACE8C009ACE873
:10074000C009ACE8C009ACE8C0098D46704710B5D7
:100750000446AFF300802046BDE81040FFF735BDEA
:1007600001491820ABBEFEE726000200704700BF1B
:10077000FEE770472DE9F0410246002500260020E3
:1007800000230024002791F803C00CF00F0591F816
:1007900003C00CF0100CBCF1000F03D091F802C0A4
:1007A0004CEA050591F800C0BCF1000F31D0146887
:1007B00000202BE04FF0010C0CFA00F3B1F800C060
:1007C0000CEA03069E4220D183004FF00F0C0CFA76
:1007D00003F7BC4305FA03FC4CEA040491F803C098
:1007E000BCF1280F06D14FF0010C0CFA00FCC2F846
:1007F00014C00AE091F803C0BCF1480F05D14FF0D6
:10080000010C0CFA00FCC2F810C0401C0828D1D31F
:100810001460B1F800C0BCF1FF0F34DD5468002053
:100820002EE000F1080C4FF0010808FA0CF3B1F8C3
:1008300000C00CEA03069E4221D183004FF00F0C4A
:100840000CFA03F7BC4305FA03FC4CEA040491F8E4
:1008500003C0BCF1280F05D100F1080C08FA0CF810
:10086000C2F8148091F803C0BCF1480F07D100F121
:10087000080C4FF0010808FA0CF8C2F81080401C70
:100880000828CED35460BDE8F08141617047016112
:10089000704700BFFEE7000010B502210A48FFF7CD
:1008A000F6FF01210848FFF7F2FF00F037F80221B8
:1008B0000548FFF7EAFF00F031F801210248FFF791
:1008C000E4FF00F02BF810BD0008014010B5022134
:1008D0000648FFF7DAFF01210448FFF7D8FF00F0D0
:1008E0001DF802210148FFF7D2FF10BD00080140AA
:1008F00010B502210848FFF7CAFF00F00FF80121E8
:100900000548FFF7C4FF00F009F801210248FFF78E
:10091000BCFF00F003F810BD00080140032000BF39
:10092000011EA0F10102D0B2FAD1704700BFFEE76C
:100930007047000010B5002807DA0A07140E054AB0
:1009400000F00F031B1FD45403E00A07130E024AE2
:10095000135410BD18ED00E000E400E070B5002471
:100960000CE0002506E00020074901EB05110855C1
:10097000681CC5B2802DF6DB601CC4B2102CF0DB05
:1009800000F054F970BD0000C812002010B50446F4
:100990001CB90021A62000F032FA012C03D100215D
:1009A000A72000F02CFA10BD2DE9FF4F84B081463E
:1009B0008A460020029083460698A0EB0905079816
:1009C000A0EB0A06CDF80490CDF800A0002D01DDC3
:1009D000012705E00DB9002702E04FF0FF376D4217
:1009E000002E02DD4FF0010806E016B94FF00008B6
:1009F00002E04FF0FF387642B54201DD2C4600E0C0
:100A00003446002003901EE0009AD1B2019AD0B281
:100A1000119A00F01FF8029828440290B3440298FB
:100A2000A04205DD0298001B029001983844019015
:100A3000A34504DDABEB040B009840440090039801
:100A4000401C80B20390611C03988842DCDB08B034
:100A5000BDE8F08F2DE9F041154684460B460C4663
:100A60004FEAE17801EB5878C8F3C7024FEAE17822
:100A700001EB58784FEAE808A1EBC80808F0FF0737
:100A80000124BC40E6B25DB1174C04EB0014A45C39
:100A90003443DFF8548008EB001808F8024020E0E7
:100AA000114C04EB0014A45CE443DFF83C8008EB39
:100AB000001808F802400C4C04EB0014A45C34430A
:100AC000DFF8248008EB001808F80240064C04EB1D
:100AD0000014A45CE443DFF8108008EB001808F869
:100AE0000240BDE8F0810000C812002008B50121D5
:100AF000042000F0A1F90320ADF8000014208DF8C7
:100B0000030003208DF8020069464748FFF732FED4
:100B100003214548FFF7BBFE0420ADF8000010207C
:100B20008DF8030003208DF8020069463E48FFF768
:100B300021FE04213C48FFF7AAFE04213A48FFF7B2
:100B4000A4FE0A2000F01AFE04213748FFF79FFE9A
:100B50000021AE2000F053F90021084600F04FF9C3
:100B60000021102000F04BF90021B02000F047F9DF
:100B70000021DC2000F043F90021084600F03FF995
:100B80000021812000F03BF900216F2000F037F9AF
:100B90000021202000F033F90021A42000F02FF9DB
:100BA0000021A62000F02BF90021A82000F027F951
:100BB00000217F2000F023F90021D32000F01FF94D
:100BC0000021084600F01BF90021C02000F017F9B1
:100BD0000021A02000F013F90021D52000F00FF92A
:100BE0000021802000F00BF90021D92000F007F946
:100BF00000211D2000F003F90021DB2000F0FFF8A8
:100C00000021352000F0FBF80021AD2000F0F7F8BE
:100C10000021802000F0F3F8FFF7A0FE0021AF20B4
:100C200000F0EDF808BD00000008014070B5002498
:100C30001CE004F1B001C8B2002100F0E0F800218E
:100C4000084600F0DCF80021102000F0D8F800255C
:100C500008E0084901EB0511085D012100F0CFF81B
:100C6000681CC5B2802DF4DB601CC4B2102CE0DB24
:100C700070BD0000C81200202DE9FE4F07468846CF
:100C800092461C460197CDF80080082C02D14FF007
:100C900006091FE02046E31704EB5373DB102146DF
:100CA0004FEAE47C04EB5C7C4FEAEC0CA4EBCC0C4C
:100CB000BCF1000F02D04FF0010C01E04FF0000C2E
:100CC0006344224604EBD27C4FEA6C0C03FB0CF32A
:100CD00003F0FF09AAF12000C6B200255EE0082C4F
:100CE00007D106EB46002F4901EB400010F805B094
:100CF0001DE00C2C07D106EB46002B4901EB8000D0
:100D000010F805B013E0102C05D1284800EB0610B0
:100D100010F805B00BE0182C07D106EBC6002449EB
:100D200001EB800010F805B001E0BDE8FE8F002067
:100D300002901CE00BF0010028B1414638460C9AA5
:100D4000FFF788FE09E00C9808B9012000E00020B8
:100D5000024641463846FFF77DFE4FEA6B0B08F12D
:100D6000010000F0FF080298401CC0B202900298F7
:100D70000828DFDB781CC7B2082C0BD004EBD47139
:100D80004A100199791A8A4204D1019F00980830CB
:100D9000C0B20090DDF80080681CC5B24D459EDBF6
:100DA00000BFC2E7CE4A0008F64C00086A510008AE
:100DB0005A5700082DE9F84106460F4614461D46CD
:100DC000DDF81C8013E0CDF8008022782B463946F0
:100DD0003046FFF751FF082D02D1B01DC6B205E025
:100DE000284605EBD07106EB6101CEB2641C207879
:100DF000202802DB20787E28E5DDBDE8F88170B58B
:100E000005460C46FFF748FD782000F027F8FFF76D
:100E10006FFD1CB1402000F021F802E0002000F03E
:100E20001DF8FFF765FD284600F018F8FFF760FD94
:100E3000FFF74CFD70BD704729B1064A9269024325
:100E4000044B9A6104E0034A92698243014B9A6120
:100E500070470000001002407047000070B5044663
:100E600000251BE004F0800020B102210D48FFF7AF
:100E70000EFD03E002210B48FFF707FDFFF74EFDD3
:100E800001210848FFF703FDFFF748FD0121054850
:100E9000FFF7FBFC6006040E681CC5B2082DE1DB01
:100EA00070BD00000008014010B500F001F810BD51
:100EB0000CB50020019000903348006840F4803069
:100EC0003149086000BF3048006800F400300090ED
:100ED0000198401C0190009818B90198B0F5A06FD6
:100EE000F1D12948006800F4003010B101200090D1
:100EF00001E0002000900098012843D123480068B9
:100F000040F01000214908600846006820F0030006
:100F100008600846006840F0020008601A4840680F
:100F2000194948600846406848600846406840F4EF
:100F3000806048600846406820F47C10486008469D
:100F4000406840F4E81048600846006840F080704F
:100F5000086000BF0C48006800F000700028F9D05D
:100F60000948406820F00300074948600846406887
:100F700040F00200486000BF0348406800F00C00E9
:100F80000828F9D10CBD00000010024000200240EA
:100F900002480068401C014908607047B0120020F8
:100FA00010B51348006840F0010011490860084678
:100FB0004068104908400E494860084600680E49DC
:100FC00008400B4908600846006820F4802008604B
:100FD0000846406820F4FE0048604FF41F00886017
:100FE000FFF762FF4FF000600449086010BD000089
:100FF000001002400000FFF8FFFFF6FE08ED00E0E1
:1010000000BFFEE710B523E000F0D0FA13480078E7
:10101000F0B100201149087008464078022802D03B
:10102000032814D109E002200D4981F87A0081F8E3
:101030007B00002081F87C0009E00220084981F84B
:101040007A0081F87B00002081F87C0000BF00BF9F
:10105000034890F87C000028D6D110BD3C1F00202A
:10106000C81A00202DE9F04781460F480088401C2F
:101070000D4908800846008803F0C4FA80460B49F1
:1010800003F008FB0446204601F086FE07460849A7
:1010900003F000FB06464FF08A4103F015F90546C0
:1010A00003F07CFABDE8F08718000020CDCC4C3D61
:1010B0000080BB4470B50446049D601AEE1A70436C
:1010C000561A90FBF6F0184470BD70B505460C46F4
:1010D000204602F063FB70BD70B505460C46204605
:1010E00002F0FEFB70BD70B505460C46204602F0CE
:1010F0000DFC70BD70B505460C46204602F0C4FBE1
:1011000070BD2DE9F04180460C4615461E46069FEF
:101110003B4632462946204602F032F9BDE8F081CE
:101120002DE9F04107460C4615461E463246294633
:10113000204602F0CBFABDE8F08170B505460C46BA
:10114000204602F0D3FB70BD2DE9F84381460C46E2
:1011500015461E46DDE908783B46324629462046BC
:10116000CDF8008002F086F9BDE8F8832DE9F84358
:1011700081460C4615461E46DDE908783B46324658
:1011800029462046CDF8008002F0CEFABDE8F8836B
:101190002DE9F04180460C4615461E46069F3B460B
:1011A00032462946204602F007F9BDE8F0812DE9D4
:1011B000F04107460C4615461E4632462946204653
:1011C00002F030F9BDE8F08170B506460C461546D0
:1011D0002946204602F07EFB70BD10B5044620462D
:1011E00000F030FA10BD4100080218BF04200A0EBA
:1011F00018BF40F001004FF07F4232EA010108BF02
:1012000040F00200012808BF05207047012103F0CB
:1012100020BC0021084603F0CBB86FF05E01080740
:1012200003F017BC2DE9F04D0D4614464FF07F41F9
:10123000B1EB440F9EBF4FF0FF312960BDE8F08D48
:101240004FF0004040EA0421C4F3C750783810F052
:101250001F024A4B4FEA601CC2F120067B44C4F3D4
:10126000C750A0F178004FEA601003EB800053F8FC
:101270002C3008BFD0E901C612D0D0F804C093408A
:101280002CFA06F73B4387680CFA02FC27FA06F8AB
:10129000C06807FA02F2F0404CEA080C42EA000685
:1012A000A3FB0132ACFB01C0A6FB016101EB0C0604
:1012B0008E4234BF4FF0010C4FF0000CC118614456
:1012C000BCF1000F02D0814202D903E0814201D279
:1012D000012000E00020104400F120024FEA9218A3
:1012E0008006CA0C40EA42304F03C5F8008003F084
:1012F00071F98246384603F085F96FF0120103F068
:10130000A8FB0746304603F07DF96FF0250103F096
:10131000A0FB83463946504602F0D6FF594602F0FC
:10132000D3FF00F500666FF30B065146304603F01D
:10133000E9FA394603F0E6FA594603F0D9FA1049BA
:1013400003F0A8F907460F49304603F0A3F93946E0
:1013500002F0BAFF07460C49304603F09BF93946C4
:1013600002F0B2FF14F0004F08BFBDE8F08DC8F1E5
:10137000805180F000402960BDE8F08D145B0000D2
:10138000DB0FC92F22AAFD290000C92F30380A28F7
:1013900001D201207047002070470000002003495F
:1013A00048604FF08140886070470000301F002087
:1013B00010B500F01DF80C48007898B100200A49DB
:1013C000087008464078022802D0032809D100E0BE
:1013D00000BF0820054981F87A00032081F87B00CE
:1013E00000BF00BF10BD00003C1F0020C81A002035
:1013F0002DE9FC4147494848FFF79FFE47494648C9
:10140000FFF763FE00F10804204603F0E3F84449C7
:10141000886205222831081F00F088F8052241491A
:10142000081F00F083F801213B48FFF755FE3B4BB6
:10143000102208213848FFF773FE3948816A4FF0BF
:10144000814002F041FF06464FF0814102F03CFF2F
:10145000054603F0A3F804B2304B20331022214696
:101460002D48FFF75DFE02241CE02E4908398868EC
:101470004FF0804102F028FF07464FF0824102F012
:1014800023FF064603F08AF805B2244800EB441314
:10149000601E162101EB001002B229461E48FFF71C
:1014A0003FFE641C2048807AA042DEDC1D490839DA
:1014B000486803F073F804B21B48807A801E042148
:1014C000C1EB001002231C22214600901248FFF7B6
:1014D00018FE02211048FFF7FFFD1149486A03F08A
:1014E0005DF804B20020102123460422CDE900104B
:1014F00011460948FFF728FE0B4890F88D0038B9CF
:10150000802003460022114600900348FFF7F9FDB2
:10151000BDE8FC81DF6800080E0000209E1100205D
:10152000B41B0020381F0020C81A00202DE9F04706
:1015300004460D4616462968206802F0FBFF28D0B5
:101540002968206803F0DEF9814602F091FE21F05F
:10155000004107464FF080420F4B02F0F9FD02D2E6
:101560002868206015E00D49885D03F04BF882463D
:101570000B4902F01DFF80462168286803F0C2F97C
:101580008146414602F014FF0746216802F09CFEA6
:101590002060BDE8F08700003333C33F461B0020C6
:1015A0000000204110B500F0DFFA10BD10B51F4853
:1015B00000681F490860084600681E49096888429B
:1015C00032D01B4800681B4908601B4991F8851000
:1015D000480000F0D3F8154800681549086008462F
:1015E000006808BB012015490870002014490860F4
:1015F00007E013480068401C11490860012000F012
:10160000BDF80A4800680028F3D00B4890F886001F
:101610000B490968B1EB400F03DA02200749487013
:1016200002E003200549487010BD000038812142C6
:10163000A0120020A4120020C81A00203C1F002085
:10164000A81200202DE9F041C0F3C751A1F17F0598
:101650000446172DA8BFBDE8F0814FF07F4715491C
:10166000002D0EDA02F030FEB7EB400F1ED300283B
:101670001CDD002CC8BF4FF07E54B8BF4FF00044B3
:1016800014E00D4A22FA05F6344208BFBDE8F081A5
:1016900002F01AFEB7EB400F08D3002806DD002C3D
:1016A00003DD4FF40000E8400444B4432046BDE8A5
:1016B000F0810000CAF24971FFFF7F00014988668E
:1016C00070470000601E00200649896E095C09B958
:1016D000012100E00021034A926E11540121024AC7
:1016E00011717047601E0020581F0020014AD0660B
:1016F00011677047601E0020044AD26E1070034AC2
:10170000126F11700122024B1A717047601E002087
:10171000581F00200149486670470000601E0020E5
:1017200010B5144814490860084600684FF4FA518F
:10173000B0FBF1F4B4F1807F01D3012011E024F07B
:101740007F40401E4FF0E02148610F214FF0FF30F5
:10175000FFF7F0F800204FF0E021886107200861D2
:10176000002008B100BFFEE70F214FF0FF30FFF768
:10177000E1F810BD00A24A04B412002000B50246F0
:1017800001F088F9034600BF01F084F9C01A9042C5
:10179000FAD300BD10B503211D4800F07DFF1D48A0
:1017A000007898B300201B4908700846407838B18B
:1017B000012804D002280DD0032826D103E000BF61
:1017C00000F048FE21E00021134890F879206530B0
:1017D000815400BF104890F879106530405C10B11A
:1017E0000B2810D107E002200B4981F87A00032072
:1017F00081F87B0007E00420074981F87A00022085
:1018000081F87B0000BF00BF00BF00BF10BD00001B
:101810001E0100203C1F0020C81A002010B51948E6
:10182000007850B94FF480711748FEF755FE01203B
:101830001449087002F084F810BD002013490870A4
:101840004880002410E01148408820440E49095C7B
:101850000E48401D005D814204D00C480078401CB9
:101860000A490870601CC4B20B2CECDB07480078F6
:10187000012802DC00F00CF801E002F061F800BF82
:10188000DAE70000AC120020681F0020581F00207B
:101890000B21134A5180002008E011494988014476
:1018A000104A525C10490A54411CC8B21028F4DB9B
:1018B0000B49498810310A4A5180002008E0084944
:1018C00049880144074A515C084A1154411CC8B276
:1018D0000428F4DB02494988091D014A51807047F8
:1018E000581F0020681F0020461B00201A000020FF
:1018F00000211D4A5180002009E01B49491D095C57
:10190000194A52880244194B9954411CC8B20B28F9
:10191000F3DB154949880B31134A5180002008E058
:101920001349095C104A52880244104B9954411CD7
:10193000C8B21028F4DB0C49498810310A4A51809A
:10194000002008E00B49095C074A52880244074B13
:101950009954411CC8B20428F4DB03494988091D85
:10196000014A518070470000581F0020681F002066
:10197000461B00201A00002010B5784991F8840019
:10198000FFF7FCFE754890F88D0000286CD0734876
:1019900090F87D00012806D002281CD003282ED004
:1019A000042858D143E0002410E0204604EBD07115
:1019B0004910A4EB410139B169480068005D00F0AD
:1019C000AA00674909680855601C84B26548008808
:1019D0008442EADB47E000240CE0204604EBD071AF
:1019E0004910A4EB410119B100205D49096808556F
:1019F000601C84B25B4800888442EEDB33E0002444
:101A000010E0204604EBD0714910A4EB410139B934
:101A100053480068005D00F05500514909680855B9
:101A2000601C84B24F4800888442EADB1BE000243B
:101A30000CE0204604EBD0714910A4EB410119B928
:101A40000020474909680855601C84B24548008851
:101A50008442EEDB07E00420404981F87B0000204F
:101A600081F87D0000BF70E03C4890F87D000128BF
:101A700006D002281CD0032830D004285CD145E0D1
:101A8000002410E0204604EBD0714910A4EB410182
:101A900039B133480068005D40F0AA003049096858
:101AA0000855601C84B22F4800888442EADB4BE072
:101AB00000240EE0204604EBD0714910A4EB410154
:101AC00029B127480068005D254909680855601C50
:101AD00084B2244800888442ECDB35E0002410E026
:101AE000204604EBD0714910A4EB410139B91C48E0
:101AF0000068005D40F05500194909680855601CF0
:101B000084B2184800888442EADB1DE000240EE01D
:101B1000204604EBD0714910A4EB410129B91048CB
:101B20000068005D0E4909680855601C84B20D48C4
:101B300000888442ECDB07E00420084981F87B0040
:101B4000002081F87D0000BF00BF044890F87D00B0
:101B5000401C024981F87D0010BD0000C81A002019
:101B6000080000200C00002008B501210820FFF724
:101B700063F94FF44050ADF8000004208DF80300E5
:101B800003208DF8020069460748FEF7F3FD4FF485
:101B90008040ADF8000048208DF8030069460248F7
:101BA000FEF7E8FD08BD0000000C01402048006879
:101BB000204988702048D0F83401C8700846007960
:101BC00038B90846807820B90846C07848710120A5
:101BD00008711848007950B31648807838B3154812
:101BE000C07808B9012000E0002012498871084639
:101BF000407940B10846807928B1104890F88C00AF
:101C00004870012008700B48407968B9094880790C
:101C100050B90A4890F88C0008B9012000E0002073
:101C2000044948700120087000200249087170477B
:101C3000308121423C1F002000802142C81A002030
:101C400000B50248FFF766FD00BD00001A00002045
:101C500010B50421264800F01FFD26480078002812
:101C600045D00020234908700846407838B1012843
:101C700004D002280DD0032838D103E000BF00F0C3
:101C8000E9FB33E000211C4890F87920653081544D
:101C900000BF194890F879106530405C20B10128E8
:101CA00009D0022820D112E00320134981F87A00DC
:101CB00081F87B0018E005200F4981F87A000220A6
:101CC00081F87B000D49881EFFF710FD0CE006200F
:101CD000094981F87A00022081F87B000749491CF4
:101CE000881EFFF703FD00BF00BF00BF00BF10BD8F
:101CF0009E0200203C1F0020C81A00201C0000206B
:101D000000B50249881EFFF7F1FC00BD1D00002050
:101D100010B50621D74800F0BFFCD748007800284E
:101D200075D00020D44908700846407838B10128A1
:101D300004D002280DD0032803D103E000BF00F037
:101D400089FB94E10021CD4890F8792065308154D9
:101D500000BFCA4890F879106530405C2A2872D2DA
:101D6000DFE800F0151D1E2728313A434C565F6806
:101D7000727B848D969FA8B1BAC3CCD5F0F9EDECF7
:101D8000EBEAE9E8E7E6E5E4E3E2E1E0DFDE0420B0
:101D9000BA4981F87A00032081F87B0065E164E1AB
:101DA000B64890F879206530815C0020FFF7A4FCEC
:101DB0005BE15AE1B14890F879206530815C4120BF
:101DC000FFF79AFC51E1AD4890F879206530815CCD
:101DD0004220FFF791FC48E1A84890F8792065304F
:101DE000815C4320FFF788FC3FE1A44890F879200C
:101DF0006530815C4420FFF77FFC36E19F4890F816
:101E000079206530815C4520FFF776FC2DE12FE1DC
:101E10009A4890F879206530815C4620FFF76CFC89
:101E200023E1964890F879206530815C4720FFF7E0
:101E300063FC1AE1914890F879206530815C482074
:101E4000FFF75AFC11E10FE18C4890F879206530DA
:101E5000815C4920FFF750FC07E1884890F8792021
:101E60006530815C4A20FFF747FCFEE0834890F82C
:101E700079206530815C4B20FFF73EFCF5E07F4820
:101E800090F879206530815C4C20FFF735FCECE060
:101E90007A4890F879206530815C4D20FFF72CFC62
:101EA000E3E0764890F879206530815C4E20FFF7BA
:101EB00023FCDAE0714890F879206530815C4F208E
:101EC000FFF71AFCD1E06D4890F879206530815C0D
:101ED0005020FFF711FCC8E0684890F87920653081
:101EE000815C5120FFF708FCBFE0644890F879203E
:101EF0006530815C5220FFF7FFFBB6E05F4890F849
:101F000079206530815C5320FFF7F6FBADE05B483C
:101F100090F879206530815C5420FFF7EDFBA4E058
:101F2000A1E097E08DE083E079E06FE065E05BE0C1
:101F300051E047E03DE03BE031E027E01DE013E009
:101F400009E0FFE74D4890F879206530815C552025
:101F5000FFF7D2FB89E0494890F879206530815C31
:101F60005620FFF7C9FB80E0444890F8792065309F
:101F7000815C5720FFF7C0FB77E0404890F879205C
:101F80006530815C5820FFF7B7FB6EE03B4890F866
:101F900079206530815C5920FFF7AEFB65E037485A
:101FA00090F879206530815C5A20FFF7A5FB5CE052
:101FB0005BE0324890F879206530815C3020FFF793
:101FC0009BFB52E02D4890F879206530815C3120F0
:101FD000FFF792FB49E0294890F879206530815C51
:101FE0003220FFF789FB40E0244890F879206530E3
:101FF000815C3320FFF780FB37E0204890F87920A0
:102000006530815C3420FFF777FB2EE01B4890F8A9
:1020100079206530815C3520FFF76EFB25E017489D
:1020200090F879206530815C3620FFF765FB1CE075
:10203000124890F879206530815C3720FFF75CFB0F
:1020400013E00E4890F879206530815C3820FFF766
:1020500053FB0AE0094890F879206530815C39200B
:10206000FFF74AFB01E000E000BF00BF00BF00BF78
:1020700010BD0000DE0300203C1F0020C81A002015
:1020800000B50249881EFFF731FB00BD1C0000208F
:1020900010B505212A4800F0FFFA2A4800780028E8
:1020A0004DD00020274908700846407838B10128F3
:1020B00004D002280DD0032840D103E000BF00F077
:1020C000C9F93BE00021204890F87920653081541F
:1020D00000BF1D4890F879106530405C07282BD26E
:1020E000DFE800F0040C0D16172029000420164923
:1020F00081F87A00032081F87B001DE01CE0124883
:1021000090F879206530815C0020FFF7F5FA13E044
:1021100012E00D4890F879206530815C0120FFF7CE
:10212000EBFA09E0084890F879206530815C0220DC
:10213000FFF7E2FA00E000BF00BF00BF00BF10BD24
:10214000FE0200203C1F0020C81A002000B51C48D9
:1021500090F87900401C1A4981F879000020087035
:10216000184908604FF08340486000204862C86208
:10217000C1F88000124981F87B00084690F87A0087
:10218000801E08281AD2DFE800F00419070A0D1093
:10219000131600F0EDFE11E0FFF752FD0EE0FFF721
:1021A0006FFF0BE0FFF7ACFD08E001F04BFC05E032
:1021B00000F0C0FC02E0FFF7F1F800BF00BF00BD77
:1021C000C81A0020B41B002010B50021174890F851
:1021D000792065308154653890F87920144840F8AA
:1021E0002210124890F87900401E104981F87900B9
:1021F000002008700E49303908604FF08340486075
:102200000020C1F88000094981F87B00084690F859
:102210007A00012802D0022806D102E000F080FEF8
:1022200002E000F0A5FE00BF00BF10BDC81A0020EC
:10223000E41B0020F8B50F49D1F890004FF0804121
:1022400002F042F807464FF0804102F03DF80646A2
:102250004FF07E5102F038F8054602F09FF904B2C3
:10226000062003462246622100900348FEF749FFFC
:10227000F8BD0000B41B00200E0000202DE9F8433B
:102280005F240D49D1F890004FF0804102F01CF816
:10229000814602F083F905B20C2637464FF001085B
:1022A0003B46324629462046CDF8008001F06BF9C6
:1022B00000BFBDE8F8830000B41B002038B5044619
:1022C0001048416E601E085C20B90FA10F48FEF750
:1022D00011FF16E00B48416E601E085C5A280CDCAA
:1022E0000848416E601E0D5C002000908DF8005083
:1022F000684601F0C9FA00BF03E005A10348FEF7F4
:10230000F9FE38BD601E00204F4646000E0000203A
:102310003F00000010B504460D48416E601E085C89
:1023200020B1012807D002280FD109E009A10A48ED
:10233000FEF7E0FE09E009A10748FEF7DBFE04E036
:1023400007A10548FEF7D6FE00BF00BF10BD000084
:10235000601E00204F4646000E000020564F4C00E5
:10236000425249002DE9F04105460C462F49D1F86B
:1023700090004FF0824101F0A7FF80464FF081416D
:1023800001F0A2FF074602F009F906B205EB44137B
:10239000324604212648FEF7C3FE2449D1F89000B6
:1023A0004FF0824101F090FF80464FF0814101F0F3
:1023B0008BFF074602F0F2F806B232465F211C4856
:1023C000FEF702FF05EB441000782B280DD004DC4B
:1023D00023281FD0242825D120E03D2810D07E2896
:1023E00020D1204600F028F81CE0FFF747FF1148F5
:1023F000816E601E085C012801D1FFF71BFF11E010
:10240000FFF73CFF0B48006F0078A04201D1FFF7B7
:1024100011FF07E02046FFF77DFF03E02046FFF7AE
:102420004DFF00BF00BFBDE8F0810000B41B0020DD
:102430000E000020601E002070B505460448416E65
:10244000681E0C5C204601F0C9F900BF70BD000099
:10245000601E00202DE9F0418B4890F8880000288C
:102460007DD18A48407810B101284ED192E0884849
:1024700090F879106530405C002848D1844890F885
:102480008A0088B38248007870B301207E4981F8C1
:1024900088007F4890F87A10401C405C401EC1B212
:1024A0007B4890F8792065308154653890F87A102F
:1024B000401C405C7449D1F88C10884215DD754988
:1024C000734890F879207048303040F822107049F5
:1024D00091F87A20491C895C8022A2EB011002F05D
:1024E00079F86949486010E010E0694991F87A206C
:1024F000491C895C491E080102F06CF8644991F896
:1025000079206149303141F82200B9E0B8E06048F3
:10251000007828B35E4890F879106530405C401E22
:10252000C1B25B4890F879206530815456494868BB
:102530004FF0834101F03CFF80F00044544991F892
:1025400079206531885C02F05DF80546214602F08D
:102550006DF80BD24C4948684FF0834101E090E0A0
:1025600017E001F0B1FE4849486011E0484991F890
:1025700079204549303151F822004FF0834102F073
:10258000C1F9434991F879203F49303141F822009F
:1025900076E000BF3E4890F879106530415C6538C0
:1025A00090F87A20401C805C401E81421DD1384842
:1025B00090F88A00C0B136480078A8B101203249AD
:1025C00081F888000021324890F8792065308154E4
:1025D00000202D49486000212D4890F879202A4894
:1025E000303040F822104BE04AE02948007890B3A0
:1025F000274890F879106530405C401CC1B22448EF
:1026000090F87920653081541F4948684FF0834124
:1026100001F0CEFE06461C49D1F88C0001F0DAFF2D
:102620000746314602F06EF90446194991F87920BF
:102630006531895C481C01F0CDFF0546214602F05A
:10264000F5F809D2104948684FF0834102F05AF971
:102650000D49486012E012E00D4991F879200A49CD
:10266000303151F822004FF0834101F02DFE08492E
:1026700091F879200449303141F8220000E000BF90
:1026800000BFBDE8F0810000B41B00203C1F00200B
:10269000C81A00200000E0422DE9FC4706460D461E
:1026A000AC49AD48FEF749FDAC4890F8792065305B
:1026B000805C06EB4011A848FEF707FD00F1080416
:1026C000204601F087FFA6498862A449491C495D5C
:1026D000481E01F07FFF814649464FF0864001F0D9
:1026E00067FE07469D4991F879206531885C01F0C5
:1026F00089FF8046394601F0CDFF0446FEF76DFDA7
:102700009749C1F884000222091D081FFEF70EFF39
:10271000022293492831081FFEF708FF8F4890F8DE
:1027200079208F48303000EB82010222001FFEF733
:10273000FDFE02228A498431081FFEF7F7FE884811
:1027400090F8880078B1854A92F87930844A30321E
:1027500052F82310303AD06A01F0ECFE03D1002089
:102760007F4981F8880001217B48FEF7B5FC0523ED
:1027700000227B217848FEF71AFD05237F227B216A
:102780007548FEF714FD7748FEF727FD82464FF0A7
:10279000864102F0ADF8814601F000FF04B2002747
:1027A0004FF0800842463946204600F0ABFF00BF9C
:1027B0006B49D1F8800001F0F1FE04B2052300223C
:1027C0007B2165480094FEF79CFC64480078002853
:1027D00071D1002449E0614890F8880020B35F4936
:1027E00091F879206531895C080101F0F3FE81469A
:1027F000204601F0EFFE824659480168504601F03C
:1028000049FF8046494602F07DF80746534890F854
:1028100079205348303050F82210384601F054FDEA
:102820004F49C1F890001BE04C4991F8792065317F
:10283000895C601A01F0CEFE804649480168404636
:1028400001F028FF0746454890F879204448303089
:1028500050F82210384601F037FD4149C1F8900088
:1028600021463046FFF77EFD641C3C48401C405D1D
:10287000A042B0DC3A4A5168106801F05BFE32D1E8
:1028800001203649087091F879206531895C090189
:10289000484201F09FFE0446304890F879203048C5
:1028A000303050F82210204601F00EFD2C494860CF
:1028B000086018E0FFE7002410E0200101F08AFE24
:1028C000074627480168384601F0FEFC2449C1F854
:1028D000900021463046FFF745FD641C1F48401C10
:1028E000405DA042E9DC02211B48FEF7F5FB1C49D4
:1028F000486A01F053FE04B21949C86A01F04EFE5D
:1029000007B20020102123463A46CDE900100146C7
:102910001148FEF719FC114890F88D00B8B98020D5
:1029200003460022114600900B48FEF7EAFB0B48D5
:1029300090F87A0010B1072809D100E000BF80208C
:1029400003460022114600900348FEF7DAFBBDE87B
:10295000FC870000DF6800080E000020C81A002075
:10296000B41B002000002040FEF7DAFEFEF7BEF8A0
:102970000020FEF70BF8FEF715FE00F0EBFCFEF76B
:102980004DFF00F0C9FF0D480D49C86408650820D7
:102990000C49C1F88C0000200B4981F86500022029
:1029A00081F87A0081F87B00FFF7D0FB05E0FEF7A5
:1029B000FDFDFFF7FBF800F0F5FFF8E70000F4423B
:1029C000581B0020B41B0020C81A002010B52B4A49
:1029D0002B492C4800F07EFB2B48007800283ED085
:1029E0000020294908700846407828B1012802D003
:1029F000022833D103E000BF00F0DAFA2EE02348CA
:102A000090F879106530405C30B101280CD0022874
:102A100012D0032820D117E001201C4981F87A0048
:102A2000032081F87B0017E00320184981F87A0021
:102A3000022081F87B000FE00720144981F87A001A
:102A4000022081F87B0007E00820104981F87A0015
:102A5000022081F87B0000BF00BF00BF00BF0C4810
:102A600090F8580040B90948007828B1002008497A
:102A7000C8630846C06C486410BD0000E0680008E8
:102A80009E0000201E0000203C1F0020C81A0020CD
:102A9000581B002000BF0349086809688842FAD122
:102AA00070470000B01200202DE9F04105460C46A9
:102AB000002D05DB802D03DA002C01DB802C01DBEF
:102AC000BDE8F08119480078012805D1E1B2E8B2EB
:102AD0000122FDF7BFFF26E01448007828B9E1B2D3
:102AE000E8B20022FDF7B6FF1DE01048007802288A
:102AF00019D12046E11704EB5171C1F3C706E11764
:102B000004EB5171C910A4EBC10201219140CFB275
:102B1000E8B2074901EB0010805D7840E9B2044A51
:102B200002EB0111885500BFCAE700000000002039
:102B3000C812002000B50348FEF7ECFD0148FEF77F
:102B4000BDFD00BD461B00201FB508217848FFF7DA
:102B5000A3FD78480078002871D0002075490870DE
:102B60000846407838B1012804D002280DD0032847
:102B700003D103E000BFFFF76DFCD7E000216E48F2
:102B800090F879206530815400BF6B4890F8791037
:102B90006530405C122811D2DFE800F009112131C4
:102BA000415262728292A2A6AAAEB2B6BABE022008
:102BB000614981F87A00032081F87B00B4E00820A5
:102BC0005B4905220023CDE90032CDE90210FF2345
:102BD000594A7E32002159A001F084FAA4E008206D
:102BE000534901220A23CDE90032CDE902106423C2
:102BF000514A7F32012154A001F074FA94E0082078
:102C00004B4901220A23CDE90032CDE902106423A9
:102C1000494A803202214FA001F064FA84E0082082
:102C2000434901220A23CDE90032CDE90210642391
:102C3000414A813203214AA001F054FA74E076E05F
:102C400008203B4901220A23CDE90032CDE90210D8
:102C50006423394A8232042143A001F043FA63E03D
:102C60000820334901220A23CDE90032CDE90210C0
:102C70006423314A833205213EA001F033FA53E048
:102C800008202B4901220023CDE90032CDE90210B2
:102C9000FF23294A8432062138A001F023FA43E0B9
:102CA0000820234901220023CDE90032CDE902109A
:102CB000FF23214A8532072133A001F013FA33E0C4
:102CC00008201B4901220023CDE90032CDE9021082
:102CD000FF23194A863201462DA001F003FA23E0B2
:102CE0000920FEF7F1FC1FE00A20FEF7EDFC1BE0D7
:102CF0000B20FEF7E9FC17E00C20FEF7E5FC13E0E3
:102D00000D20FEF7E1FC0FE00E20FEF7DDFC0BE0EE
:102D10000F20FEF7D9FC07E00920074981F87A0067
:102D2000022081F87B0000BF00BF00BF00BF1FBDB5
:102D30005E0F00203C1F0020C81A002044697370F9
:102D4000204272690000000054696C6520416E6980
:102D5000000000004C69737420416E69000000009F
:102D600057696E20416E690053706F7420416E691F
:102D70000000000054616720416E6900466164658F
:102D800020416E690000000042746E2053505400D0
:102D900042746E204C5054002DE9F843044602461C
:102DA00052486946B0EB420F09D94FF0E640B0EB0C
:102DB000420F94BF00204FF0FF30009030E04C4BAA
:102DC00022F00040834271D94A49204601F062FC5A
:102DD00001F05EFD804601F0E1FB00F00300009091
:102DE0004549404601F056FC05464449404601F03D
:102DF00051FC06464249404601F04CFC0746414919
:102E0000404601F047FC214601F072FD394601F0D1
:102E100079FD314601F076FD294601F073FD044647
:102E20002546009C002C45DB294614F0010F08467E
:102E30001ED001F02FFC0546334901F02BFC33492D
:102E400001F042FA294601F025FC314901F03CFA33
:102E5000294601F01FFC4FF07E5101F035FA14F0C5
:102E6000020F08BFBDE8F88380F00040BDE8F8839A
:102E700001F010FC0646274901F00CFC264901F040
:102E800037FD314601F006FC244901F01DFA3146B8
:102E900001F000FC294601F0FDFB294601F014FA7F
:102EA00014F0020FE0D1BDE8F883FFE71046FEF70B
:102EB000B9F9B4E76800B0F17F4F09D22846FEF7B0
:102EC00092F9042808BFFEF7A8F92846BDE8F88360
:102ED00006D10120FDF76AFBBDE8F843FEF799B97A
:102EE0002846BDE8F843FEF791B90000B61F927E70
:102EF000490E494683F9223F1A61342C0020A2333F
:102F000000A0FD390000C93FB93AB2BACA9F2A3DB4
:102F1000DDFFFFBE336D4C39DA82083CA0AA2ABE21
:102F200008B500210F48FEF7D7F88020034600229D
:102F3000114600900B48FEF7E4F800BF00F0BAFC21
:102F400000BF0420084981F87B00012081F87C0043
:102F50000648007920B1FEF7CBFC00200349087138
:102F600008BD00000E000020C81A0020581F0020D5
:102F700000200A4908700A49C8620A4808630A48DA
:102F8000486300208863C863084808640846C06C2A
:102F900048640846006D886470470000C81A002025
:102FA000581B002000006442000040C20000204185
:102FB00010B54448407810B1012840D145E042485E
:102FC0000078002840D0404890F879106530405C87
:102FD000002816DD3C4890F879106530405C401EB2
:102FE000C1B2394890F87920653081543749086B6F
:102FF000374901F069F935490863002081F8580024
:1030000022E0314890F88900D0B12F4890F87A102A
:10301000401C405C401EC1B22B4890F879206530BE
:103020008154294991F87A20491C895C491E6FF026
:10303000380201FB02F001F0CDFA244908633EE0BA
:103040000120224981F8580039E01F48007810B368
:103050001D4890F879106530415C653890F87A2009
:10306000401C805C401E814216DA174890F87910A7
:103070006530405C401CC1B2134890F8792065303F
:1030800081541249086B124901F03CFC0F49086356
:10309000002081F8580011E00B4890F8890048B1F1
:1030A0000021094890F879206530815400200749B3
:1030B000086304E00120054981F8580000BF00BF03
:1030C00010BD00003C1F0020C81A0020581B002023
:1030D000000064422DE9FC5F05460E4617460122BA
:1030E0009649081FFEF722FA012294490831081F69
:1030F000FEF71CFA012291491031081FFEF716FA5B
:1031000001228E491831081FFEF710FA01218C4860
:10311000FDF7E2FF00218A48FDF7E5FF894988486D
:10312000FEF70BF885493039486C01F037FA0FFA91
:1031300080F8854890F879206530805C05EB401177
:103140007F48FDF7C2FFC0F1760404EBD470401055
:103150000A300FFA80F97C4890F879106530405CAD
:1031600005EB4013424649467548FDF7D9FF7749BC
:103170007348FDF7E2FF744890F879206530805C71
:1031800006EB40116E48FDF7A0FFC0F1800404EB90
:10319000D47040100FFA80F86B4890F879106530C1
:1031A000405C06EB4013742241466548FDF7B8FFCA
:1031B00062493039C86B01F0F1F904B22820234686
:1031C0003922002100905E48FDF79BFF5E480078A1
:1031D00000287CD1002458E05B4890F8870008B3B1
:1031E000594991F879206531895CC1EBC102C2EB84
:1031F000811001F0EFF98246204601F003FA834680
:103200004E483038C16A584601F044FA8146504968
:1032100001F05AF88046514601F074FB47493039B5
:10322000486515E0484991F879206531895C601A54
:1032300001F0D0F9814641483038C16A484601F072
:1032400029FA8046424901F03FF83C493039486547
:103250003A493039486B01F0A1F90FFA80F8374943
:103260003039486D01F09AF90FFA80F904EBC40087
:1032700007EB401030210B464246CDE9001049468D
:103280002F48FDF773FF601CC4B22F4890F87A10E6
:10329000401C405CA0429FDC284A303A116BD06A47
:1032A00001F048F938D101202749087091F87920B8
:1032B0006531895C4942C1EBC102C2EB811001F06A
:1032C00089F91E4930390863C86225E0FFE7002408
:1032D0001BE01A493039C86A01F060F92830C4EBA4
:1032E000C401C1EB841108440FFA80F804EBC40058
:1032F00007EB401030210B460022CDE9001041467B
:103300000F48FDF733FF601CC4B20F4890F87A10E5
:10331000401C405CA042DCDC02210948FDF7DCFED9
:10332000094890F88D0038B98020034600221146E4
:1033300000900348FDF7E5FEBDE8FC9F881B0020D8
:103340000E000020DE680008C81A0020DF680008B0
:103350000000204201200449087008204870002025
:1033600048808880887170470000002010B54FF4B5
:1033700000610248FDF7B0F810BD0000C81200203F
:103380002DE9F04704460D46904699462E460DE03D
:10339000274605E031463846FFF786FB781C07B222
:1033A00004EB0800B842F5DC701C06B205EB09001E
:1033B000B042EDDCBDE8F0872DE9F05F06460F4630
:1033C00090469946B8F1010F02DBB9F1010F01DA1D
:1033D000BDE8F09F06EB0800401E0FFA80FA07EBED
:1033E0000900401E0FFA80FB344609E039462046AA
:1033F000FFF75AFB59462046FFF756FB601C04B204
:103400005445F3DD3D4609E029463046FFF74CFBC5
:1034100029465046FFF748FB681C05B25D45F3DDC1
:1034200000BFD5E72DE9F04104460F461646254674
:1034300005E039462846FFF737FB681C05B2A0199E
:10344000A842F6DCBDE8F081F8B504460D46164604
:103450001F460748007808B1012000E00020FBB2B9
:10346000F2B2E9B20090E0B2FDF79EFAF8BD0000BA
:10347000000000202DE9F04707468846924699460D
:10348000089C012C07DA4B46524641463846FFF766
:1034900077FFBDE8F087022101FB14A10AB23919B8
:1034A00008B24B464146FFF76BFF6000484518DA0B
:1034B000022000FB149003B208EB040001B2224684
:1034C0003846FFF75DFF022202FB149213B208EBAD
:1034D000040211B207EB0A02121B10B22246FFF7D8
:1034E0004FFF604205B24AE0604206B243E006FB8D
:1034F00006F005FB050104FB04F0814239DC002ED7
:103500000DDB002D0BDB08EB0902121B2A4411B264
:1035100007EB0A02121B324410B2FFF7C5FA002E65
:103520000BDC002D09DB08EB0902121B2A4411B247
:103530003A19324410B2FFF7B7FA002E0CDB002D17
:103540000ADC08EB04022A4411B207EB0A02121B40
:10355000324410B2FFF7A8FA002E0ADC002D08DC76
:1035600008EB04022A4411B23A19324410B2FFF7B0
:103570009BFA701C06B2A642B9DD681C05B2A542D2
:10358000B2DD00BF85E72DE9FC5F0746884691461E
:103590009A460C9C012C07DA53464A464146384667
:1035A000FFF70AFFBDE8FC9F38190FFA80FB0EE019
:1035B00041465846FFF778FA08EB0A00401E01B270
:1035C0005846FFF771FA0BF101000FFA80FB07EB89
:1035D0000900001B5845EBDC08EB040000B2019029
:1035E0000EE038460199FFF75FFA07EB0901491E23
:1035F00008B20199FFF758FA0198401C00B20190F7
:1036000008EB0A00011B01988142EADC604205B226
:1036100057E0604206B250E006FB06F005FB0500ED
:1036200000B2009004FB04410098814243DB04FB9C
:1036300004F0011B009881423DDC002E0FDB002DC1
:103640000DDB08EB0A02121B521E2A4411B207EBD3
:103650000902121B521E324410B2FFF725FA002E47
:103660000CDC002D0ADB08EB0A02121B521E2A4456
:1036700011B23A19324410B2FFF716FA002E0DDBE0
:10368000002D0BDC08EB04022A4411B207EB0902FF
:10369000121B521E324410B2FFF706FA002E0ADC4B
:1036A000002D08DC08EB04022A4411B23A19324416
:1036B00010B2FFF7F9F9701C06B2A642ACDD681C27
:1036C00005B2A542A5DD00BF6CE70000F8B50446D1
:1036D0000D4617460A484078281A06B2002E00DA2E
:1036E00000260748007808B1012000E00020044AC5
:1036F00000905378F1B2E0B23A46FDF75BFBF8BDBB
:10370000000000202DE9F04107460C4616462546EC
:1037100005E029463846FFF7C7F9681C05B2A0192D
:10372000A842F6DCBDE8F0812DE9F84F074688464F
:1037300016469946DDF828B0F01DC11700EB51710F
:10374000C91009B20091002523E000241DE02046A5
:10375000E11704EB5171CA10009905FB01211BF818
:1037600001A0E11704EB5171C910A4EBC102802143
:10377000114101EA0A0131B108EB050211B23A190F
:1037800010B2FFF791F9601C04B2B442DFDB681C91
:1037900005B24D45D9DBBDE8F88F00000246002197
:1037A00001E0491C521C10780028FAD10A484078E0
:1037B000182804DBC1EBC100400000B27047064886
:1037C0004078102803DB01EBC10000B2F6E701EB03
:1037D000810000B2F2E70000000000201FB504469F
:1037E000224606A16846FCF717FD054AB2F9041007
:1037F000B2F902006A46FFF769FF1FBD256C75002C
:10380000000000202DE9FF470546284600F0C6FECF
:103810008146484600F0DEFE8246294601F068F8FF
:103820008046154900F036FF07464FF07C5100F006
:103830004BFD064600F0B2FE0446002C00DA0024E0
:10384000632C00DD632423464A460CA16846FCF73E
:10385000E3FC0C4AB2F90410B2F902006A46FFF721
:1038600035FF6846FFF79AFF06494988084400B2C9
:1038700004494880BDE8FF870000C84225642E2522
:10388000303264000000002010B50446084AB2F946
:103890000410B2F902002246FFF718FF2046FFF796
:1038A0007DFF03494988084400B20149488010BDA2
:1038B0000000002010B5FDF7B9F910BD10B50446A1
:1038C00000218120FDF79BFA00212046FDF797FAA1
:1038D00010BD0000014A5080918070470000002018
:1038E0000149087070470000000000200549884227
:1038F00003D11821044A517002E00821024A517094
:1039000070470000DE68000800000020014988714F
:10391000704700000000002004210848C1700C21FD
:10392000017103214171072181715221C1710A2165
:10393000017212214172082181727047C81A002059
:10394000FF20174981F87E001E21154880F87F105E
:103950003C2180F88010192180F88110322180F8F4
:1039600082103C2180F883101E2180F884101921D8
:1039700080F88510962180F88610012180F8871044
:1039800080F88810002180F8891080F88A1080F86B
:103990008B1080F88C10012180F88D10704700008A
:1039A000C81A002010B500BFFFF784FF00BF2448ED
:1039B00090F87B00052840D2DFE800F00306090CF0
:1039C0000F00FDF7D9FF38E000F000FA35E0FEF710
:1039D000BDFB32E0FEF7F8FB2FE000BFFFF7C6FCAF
:1039E00000BF174890F87A000A2824D2DFE800F0D8
:1039F00005080B0E1114171A1D2000F0FFF91AE02C
:103A0000FDF700FB17E0FEF7E1FF14E0FDF7C2FE53
:103A100011E0FEF71DF90EE0FEF73AFB0BE0FEF7B2
:103A200077F908E000F018F805E0FFF78DF802E0FC
:103A3000FDF7BEFC00BF00BF00BF00BF10BD00000F
:103A4000C81A002000200349C8604FF08640086172
:103A500070470000481C002010B500F023F80F4804
:103A60000078D0B100200D4908700846407838B180
:103A7000012804D0022806D003280DD104E000BF9D
:103A8000FEF7E8FC08E000BF0220054981F87A0053
:103A9000032081F87B0000BF00BF10BD3C1F002049
:103AA000C81A00202DE9FC47BE49BF48FDF745FB79
:103AB000BE4890F879206530805CBD4A02EB401129
:103AC000B948FDF702FB00F10804204600F082FD32
:103AD000B84988620222091D081FFDF727FD02224E
:103AE000B4492831081FFDF721FDB04890F879202E
:103AF000B048303000EB82010222001FFDF716FDB6
:103B00000522AD49081FFDF711FDAA4890F888006D
:103B100078B1A64A92F87930A64A303252F823108A
:103B2000303AD06A00F006FD03D10020A14981F8A7
:103B3000880001219C48FDF7CFFA01219A48FDF742
:103B4000D2FA9A480078002859D1002430E09749E9
:103B500091F879206531895C601A00F03BFD82465E
:103B600094480168504600F095FD81464FF0814130
:103B700000F0AAFB80468D4890F879208D483030BF
:103B800050F82210404600F09FFB07464FF07E5150
:103B900000F0B8FE064600F001FD05B2844800EBD7
:103BA00044135E2229468048FDF7BAFA601CC4B26D
:103BB0007E4890F87A10401C405CA042C7DC7D4AE9
:103BC0005168106800F0B6FC35D1012077490870C3
:103BD00091F879206531895C0901484200F0FAFCCE
:103BE0000446724890F879207248303050F822101C
:103BF000204600F069FB6F49486008601BE0002424
:103C000012E06C49086800F0C9FC2101091D084454
:103C1000401E05B2664800EB44135E222946624806
:103C2000FDF77EFA601CC4B2604890F87A10401C20
:103C3000405CA042E5DC00205F491039486131203A
:103C400080230022114600905748FDF7A1FA2F204B
:103C50007E230122114600905348FDF799FA534AFA
:103C600092F87930534A303252F82310303AD06A01
:103C700000F060FC3AD14F4A5168106800F05AFCDD
:103C800034D1012430E0494991F879206531895CCB
:103C90004A4A505CFDF7E6F9054647481038456149
:103CA00005202B2340F6FF72002100902846FDF7E7
:103CB00001FA01464048083040F82410601E06B260
:103CC0003D49083131F8200007B20FFA84F8084660
:103CD00030F824000FFA80F94B4642463946304608
:103CE000FFF7B2FB00BF641C7F2CCCDB00212E4809
:103CF000FDF7F9F932492C48FDF71FFA5222172136
:103D00002948FDF761FA2C491039486900F062FC36
:103D100006464FF08B4100F04BFB0546294900F069
:103D2000B9FC04462046FFF76DFD00BF26A11E48E2
:103D3000FDF7E0F902211C48FDF7CEF91D49486A5C
:103D400000F02CFC04B21B49C86A00F027FC05B245
:103D5000002010235A222946CDE900401248FDF7E1
:103D6000F3F915481038C1684FF0864000F0CAFDDD
:103D7000054600F013FC04B22120802335222146A1
:103D800000900948FDF7BDF9084890F88D0038B952
:103D9000802003460022114600900348FDF7B1F948
:103DA000BDE8FC87DF6800080E000020C81A00206C
:103DB0001E0E0020B41B0020581C00201000002004
:103DC000DE680008333353405600000000200649E7
:103DD00048630648C86306480864064848640420E7
:103DE000054981F87B007047D41E0020000008C2FE
:103DF0000000484200005041C81A002010B500F0F1
:103E000067F82E49C86B2E4900F094FB05D12B486A
:103E100090F830002B4981F87A002B480078002870
:103E20004AD0264A116CD06B00F084FB44D1234960
:103E3000C86B234900F07EFB3ED000202249087069
:103E400008464078E0B1012804D002282ED003288B
:103E500031D12CE01948406A0078184991F82810AF
:103E600088420CDA1548406A0078144991F82A1003
:103E700008441249496A08700120144908711AE07F
:103E80000E48406A00780D4991F8291088420CDDEF
:103E90000A48406A0078094991F82A10401A0749EF
:103EA000496A087001200949087104E000BF04480C
:103EB0000249086400BF00BF10BD0000D41E0020EE
:103EC000000008C2C81A00203C1F0020581F002014
:103ED000F8B5784A92F83010D06AFEF7DDFB7648E4
:103EE00090F88B00C8B1002012E0014600EBD172BF
:103EF0005210A0EB42020AB9552200E0AA226F4BF1
:103F00001B681B5C1A406D4B1B681A54411C88B21D
:103F10006B4909888842E8DB00BF6A48FFF7E6FC86
:103F2000644991F82810634A92F82920881A00F011
:103F300051FB05465F49496A09785E4A92F8292093
:103F4000881A00F047FB0646294600F031FA04467D
:103F50005D4900F09FFB5749886303223831081FF1
:103F6000FDF7E4FA032253494031081FFDF7DEFA5A
:103F70000020FFF7B5FC4F49C86B00F00FFB04B2FF
:103F80004C49486C00F00AFB05B20220202366224F
:103F9000214600902846FFF76DFA0120FFF7A0FCAC
:103FA0004449C86B00F0FAFA04B24249486C00F088
:103FB000F5FA05B202202023662221460090284609
:103FC000FFF7E1FA3B49C86B00F0E8FA143004B29D
:103FD0003849486C3D4900F077F9064600F0DEFAB2
:103FE00005B2012007235C22214600902846FFF7F6
:103FF000CAFA3049486B00F0D1FA04B22D49C86BB7
:1040000000F0CCFA163005B22A49486C304900F06D
:104010005BF9074600F0C2FA06B20323224629469E
:104020003046FFF7ADF92349C86B00F0B7FA0E3000
:1040300004B22049486C254900F046F9064600F0D4
:10404000ADFA05B221462846FFF744FC1948FFF7B0
:104050001BFC1849C86B00F0A1FA0E3004B21549D8
:10406000486C1C4900F030F9064600F097FA05B29A
:1040700021462846FFF72EFC0E49496A0878FFF7CB
:10408000ADFB15A10B48FCF749FA20B90A4991F894
:104090007E00FFF713FC0220FFF722FC064890F891
:1040A0008D0028B980231A4600210846FFF768F9D9
:1040B000F8BD0000D41E0020C81A0020080000200F
:1040C0000C000020DF6800080000B0420000A040A3
:1040D0000000E04000009C42446973702042726915
:1040E000000000002DE9F05F04460D4616461F460D
:1040F000DDE90CABDDE90A8921460D48FCF7C8F97A
:104100000B4880F82050466280F8287080F829809B
:1041100080F82A90C0F82CA080F830B00020054923
:1041200081F87A00012081F87B00BDE8F09F000053
:10413000D41E0020C81A0020491058BFC1F14041C8
:104140005B1058BFC3F140438B42EFF300807047D0
:1041500051EA030C17D41CF5801F58BFBCF5801F13
:1041600000F10680994218BF704708BF904270471F
:1041700007D711F5801F58BF13F5801F19D4994236
:104180007047894270471CF5801F08D5BCF5801F19
:10419000F7D58B4218BF704708BF824270474FF473
:1041A000001C1CEB410F38BF1CEB430F01D28B42AC
:1041B000704770B500F008F8922449004FF00051A4
:1041C0004FF08053FFF7B8BF0EF1020E2EF0030E32
:1041D0005EF8046B364205D4012A43EB030515F55E
:1041E000001F12D8012841EB010C1CF5001F0CD850
:1041F0000ED14FEAD17C15F5001F0CEB4C0C0CF1E5
:10420000020C08BF4CEBD37C04E04FF0080C01E03B
:104210004FEAD37C0CEB4C0526FA05F606F00706B0
:10422000B6F1040C06D20EEB860CBDE870404CF0E3
:10423000010C6047DFE80CF0090B02024FF000416F
:104240004FF00000A1F5002170BD1946104601286D
:1042500051EB010418BFD4F5001484BF002001F015
:10426000004170BD0808A0F500114FEA3101704708
:1042700043004FEAD30C4FEA3C0C43401FBF4007BA
:104280000CF1605113F0FE4F70471CF0006F03D12A
:1042900000200CF0004170470CF0004343EA5070DE
:1042A00010B540EACC0000F076FA00BF00000092A2
:1042B0004FEA0001FFF7D6BF4FF000414FF000007A
:1042C000A1F500217047000090EA010F48BF81F07E
:1042D000004100F11E83421A3CBF801A89184FEA40
:1042E000D0524FF07F4C1CEA410FA2EBD15318BFC4
:1042F0009CEA026F00F03B804FF0004C4CEA00203B
:104300004CEA012121FA03FC10EB0C0C1ED202F145
:10431000FF325FEA1C2040EBC25038BF70471CF0F0
:104320007F0F4FEA400C18BFBCF17F4F38BF70477A
:10433000C3F12003994008BF20F00100BCF17F4F7A
:1043400038BF7047A0F1C04000F06BBA4FEA3C00A4
:10435000000A40EBC25028BF1CF0FF0F4FEA400C90
:10436000E6D018BFBCF17F4F38BF7047EAE79CEA40
:10437000026F05D010EA5C0F08BF00F000407047E4
:1043800010B500F008FA00BF64FBBE3E014800F023
:104390002EBB00BF0000C07F401058BFC0F140409E
:1043A000491058BFC1F140418142EFF3008070478E
:1043B0004FF47F0C1CEAD0121EBF1CEAD11392EA04
:1043C0000C0F93EA0C0F00F0858090EA010F48BFB4
:1043D00042F4807240F4000C41F400002CF07F4164
:1043E00020F07F4000B58142A2EB03020FF2081CCF
:1043F000ACEB504EC0F100009EF800E04FEA4E0ECC
:1044000000FB0EFC38BF49004FEA2C1C02F5FA02F3
:104410000CFB0EF34FEACE1E4FEA112C4FEAC121DE
:104420000EEB635E42EB22420EFB0CFC4FEA1C5388
:1044300000FB03114FEA112C4FEA01310EFB0CFC7B
:104440004FEADC4C00FB0C11C14228BF09184CEBB1
:1044500003335DF804EB10EB410143EBC250B2F5BE
:104460007C0F38BF704729D512F0F00F1CBF00F148
:10447000C04000F0004070470081828384858687B9
:1044800088898B8C8D8E8F919293959697999A9C13
:104490009D9FA0A2A3A5A7A8AAACAEB0B2B3B5B782
:1044A000B9BCBEC0C2C5C7C9CCCED1D4D7D9DCDF58
:1044B000E2E6E9ECF0F3F7FAFE0000004FEA400C08
:1044C0000CF1807CBCF17E4F28BF7047B0F1C0403A
:1044D00000F0A7B990EA010F0CEAD11348BF42F4EB
:1044E0008072624538BF634507D213F47F0F16D040
:1044F00080EA010000F00040704710B500F04BF971
:10450000097EFC3E00F005B880EA010000F00040A2
:10451000704780EA010000F0004000F082B912F418
:104520007F0F04BF0248704780EA010000F079B9AC
:104530000000C07F50EA010C00F113801CF5000F51
:1045400058BFBCF5000F01D48842704707D710F55B
:10455000000F58BF11F5000F15D4884270478942EB
:1045600070471CF5000F04D5BCF5000FF7D581424C
:1045700070474FF0807C1CEB400F38BF1CEB410FA5
:1045800001D28142704710B500F005F9922449002C
:104590004FF000504FF08051FFF7FEBE41000B0E70
:1045A000D3F19E0208D950F400034FEA032323FA03
:1045B00002F048BF4042704710B500F0ECF800BF71
:1045C00049922480002070476FF0004282EA200068
:1045D0007047000010F0004148BF4042B0FA80F33D
:1045E00010FA03F2C3F19D030BD051EAC35101EB62
:1045F0001220530638BF704700F1010008BF20F0B9
:1046000001007047B0FA80F310FA03F2C3F19D0382
:104610000AD0D90501EB1220530638BF704700F1CC
:10462000010008BF20F001007047000050EA010CB3
:1046300000F113801CF5000F58BFBCF5000F01D42A
:104640008842704707D710F5000F58BF11F5000FCB
:1046500015D488427047894270471CF5000F04D575
:10466000BCF5000FF7D5814270474FF0807C1CEB02
:10467000400F38BF1CEB410F01D28142704710B58B
:1046800000F089F8922449004FF000504FF080511B
:10469000FFF782BE4FF47F0C1CEAD0121EBF1CEA4B
:1046A000D11392EA0C0F93EA0C0F00F0478090EAC6
:1046B000010F48BF42F480724FF0004C4CEA0020DA
:1046C0004CEA012102EB0302A0FB0113A2F5000258
:1046D000002918BF43F001035B0028BF4FEA3303F2
:1046E00042EB22425FEA132C4CEBC2502EBFBCEBD4
:1046F000436FB2F57C0F70474FEA036CBCF1004F7B
:1047000008BF20F00100B2F57C0F38BF70470BD511
:1047100082F0FF0212F5803FC8BF704700F1C04031
:10472000D8BF00F00040704700F5000C5FEA4C0C69
:1047300048BF7047B0F1C04000F073B890EA010F75
:104740000CEAD11348BF42F48072624538BF63451A
:1047500004D280EA010000F00040704710B500F07C
:104760001AF800BF8900013E00F007B800F009B850
:104770005FEA410C5FEA1C6C08D080EA010000F09F
:1047800050B85FEA400C5FEA1C6CF6D14FF0004075
:10479000A0F5800070470EF1020E2EF0030E5EF8B9
:1047A000044B244204D44FEA4102B2F17F4F11D8A6
:1047B0004FEA4003B3F17F4F0CD80ED14FEAD07CC3
:1047C000B2F17F4F0CEB4C0C0CF1020C08BF4CEB20
:1047D000D17C04E04FF0080C01E04FEAD17C0CEBF7
:1047E0004C0324FA03F404F00704B4F1040C06D2D9
:1047F0000EEB840CBDE810404CF0010C6047DFE884
:104800000CF0070802024FF00040A0F5800010BD38
:104810000846420018BFD2F1807288BF00F0004005
:1048200010BDFF2141EAD050C005704751EA000C8D
:1048300000F113801CF5000F58BFBCF5000F01D428
:104840008142704707D711F5000F58BF10F5000FD0
:1048500015D481427047894270471CF5000F04D57A
:10486000BCF5000FF7D5884270474FF0807C1CEBF9
:10487000410F38BF1CEB400F01D28842704780EADD
:10488000010081EA000180EA0100FFF7F8BE0000A4
:104890005FEA400C5FEA1C6CBCF17F0314D4D3F1D7
:1048A000170240F31C804FF0010C0CFA02FCACF133
:1048B00001030340B3EB5C0220EA030008BF10EAE7
:1048C0000C0F88BF60447047B3F1FF3F28BF5FEA19
:1048D000002C00F0004088BF40F07E507047BCF1D3
:1048E000FF0FB8BF704710B5FFF755FF40DBB6BEEE
:1048F00080F0004090EA010F7FF5EDAC81F00041BF
:1049000000F007B890EA010F48BF81F000413FF581
:10491000E2AC421A04D882F00042A0EB020011443B
:104920004FEAD0524FF07F4C1CEA410FA2EBD1531B
:1049300018BF9CEA026F4AD04FF0004C4CEA0020AE
:104940004CEA012121FA03FCB0EB0C0C0FD412F05D
:10495000FE0F36D05FEA4C001DD5001240EBC2506E
:1049600038BF70471CF03F0F18BF70470BE0A2F133
:1049700001025FEA1C2040EBC25038BF70471CF0B8
:104980007F0F18BF7047C3F12003994014BF401E2A
:1049900020F00100704780084FEA122308BF7047DB
:1049A000B0FA80FCA2EB0C02CCF1280C60FA0CF0FF
:1049B00093EA122F04BF00EBC25070474FEAC37056
:1049C0007047130A5FEADC1008BF7047F6E79CEAFD
:1049D000026F04D010EA5C0F08BF0020704710B5CA
:1049E000FFF7D9FE40DFF63E81F0004070470CF043
:1049F0000F03092B08BF082000F051800A2B0BD0B1
:104A0000082B18BF704708BF1CF0400F0AD04FF0AA
:104A100000004FF0000170471CF0400F18BF4FF02E
:104A2000004070471CF0100F08D020F0704300F0D9
:104A30007F4242EAD3014FEA4370704700F0604082
:104A400021F07F4242EA000201F07F4040EA7270AA
:104A500070474FF0FF0212EAD0521CBF92F0FF03E2
:104A60008B42C2BFD14200EBC1507047002A0AD02E
:104A7000002B0BD0002900F00040A4BF40F0FE4006
:104A800040F40000704700F00040704743024FF0D0
:104A90000B0C18BF4CF0806C7FF478AC70471CF4A2
:104AA000801F11D01CF4E02F03D06FEACC314900F5
:104AB00070474FF04050EFF3008222F0704242EA1C
:104AC000000282F3008870474FF00000704700003A
:104AD000000000000000002F000000000700070099
:104AE00000147F147F1400242A7F2A1200626408B5
:104AF0001323003649552250000005030000000032
:104B00001C224100000041221C000014083E081431
:104B10000008083E0808000000A06000000808081F
:104B20000808000060600000002010080402003E39
:104B30005149453E0000427F4000004261514946D4
:104B4000002141454B31001814127F1000274545C4
:104B50004539003C4A4949300001710905030036D6
:104B60004949493600064949291E000036360000E9
:104B700000005636000000081422410000141414EE
:104B800014140000412214080002015109060032E9
:104B90004959513E007C1211127C007F4949493627
:104BA000003E41414122007F4141221C007F494992
:104BB0004941007F09090901003E4149497A007FC6
:104BC0000808087F0000417F4100002040413F016C
:104BD000007F08142241007F40404040007F020CCB
:104BE000027F007F0408107F003E4141413E007F6C
:104BF00009090906003E4151215E007F0919294635
:104C00000046494949310001017F0101003F404010
:104C1000403F001F2040201F003F4038403F0063BE
:104C200014081463000708700807006151494543E0
:104C300000007F41410000552A552A55000041419E
:104C40007F00000402010204004040404040000098
:104C500001020400002054545478007F4844443832
:104C600000384444442000384444487F00385454B9
:104C7000541800087E0901020018A4A4A47C007F37
:104C8000080404780000447D4000004080847D00DA
:104C9000007F102844000000417F4000007C041881
:104CA0000478007C0804047800384444443800FC4C
:104CB000242424180018242418FC007C0804040868
:104CC00000485454542000043F444020003C4040DD
:104CD000207C001C2040201C003C4030403C004414
:104CE00028102844001CA0A0A07C004464544C441C
:104CF000141414141414000000000000000000003C
:104D000000000000FC000000000002000000000C99
:104D1000020C020000000000000090D0BCD0BC904B
:104D20000003000300001824FE448C000302070265
:104D300001001824D8B04C80000300010201C038E3
:104D4000E438E0000102020102020806000000004F
:104D5000000000000000000000F804020000000154
:104D60000204000204F80000000402010000906048
:104D7000F86090000000010000002020FC202000CE
:104D80000000010000000000000000000806000014
:104D90000000202020202000000000000000000073
:104DA000000000000002000000000080601C020003
:104DB000040300000000F8040404F80001020202E9
:104DC00001000008FC00000000020302000018843B
:104DD0004424180003020202020008042424D8001C
:104DE00001020202010040B088FC800000000003C4
:104DF00002003C242424C400010202020100F82421
:104E0000242CC0000102020201000C04E41C040076
:104E1000000003000000D8242424D800010202026C
:104E2000010038444444F80000030202010000007D
:104E30001000000000000200000000002000000040
:104E4000000006000000002050880402000000005E
:104E5000010290909090900000000000000000027D
:104E6000048850200002010000001804C424180027
:104E7000000002000000F804E494F80001020202BD
:104E8000020000E09CF0800002030000030204FC2A
:104E90002424D800020302020100F80404040C00D8
:104EA00001020202010004FC0404F80002030202F1
:104EB000010004FC24740C0002030202030004FC41
:104EC00024740C00020302000000F0080444CC40EB
:104ED00000010202010004FC2020FC040203000087
:104EE00003020404FC0404000202030202000004A2
:104EF00004FC040406040403000004FC24D00C0495
:104F000002030200030204FC040000000203020288
:104F10000203FC3CC03CFC0003000300030004FC53
:104F200030C4FC04020302000300F8040404F80087
:104F300001020202010004FC242418000203020002
:104F40000000F8848404F80001020207050004FC54
:104F500024649800020302000302182424448C00F5
:104F60000302020201000C04FC040C000002030214
:104F7000000004FC0000FC04000102020100047CAB
:104F800080E01C040000030000001CE03CE01C006A
:104F9000000300030000049C609C04000203000363
:104FA0000200041CE01C04000002030200000C8448
:104FB000641C04000203020203000000FE0202005F
:104FC000000007040400000E30C0000000000001D3
:104FD0000200000202FE00000004040700000004BA
:104FE00002040000000000000000000000000000BB
:104FF000080808080808000002000000000000007F
:1050000000000040A0A0C00000010202030204FC56
:105010002020C00000030202010000C02020600028
:1050200000010202020000C02024FC000001020274
:10503000030200C0A0A0C000000102020200002084
:10504000F82424040002030202000040A0A0602013
:1050500000070A0A0A0404FC2020C0000203020020
:1050600003020020E4000000000203020000000030
:1050700020E4000008080807000004FC80E020206D
:105080000203020003020404FC0000000202030207
:105090000200E020E020C00003000300030020E045
:1050A0002020C00002030200030200C02020C00034
:1050B00000010202010020E02020C000080F0A02C7
:1050C000010000C02020E0000001020A0F0820E0DB
:1050D000402020000203020000000060A0A0200089
:1050E0000002020203000020F8200000000001027C
:1050F000020020E00020E00000010202030220E0A4
:10510000208060200000030100006080E0806000DB
:105110000003000300002060806020000203000301
:10512000020020E020806020080807010000002025
:10513000A0602000000203020200000020DE020046
:10514000000000070400000000FF00000000000F46
:1051500000000002DE200000000407000000020141
:105160000204040200000000000000000000000033
:1051700000000000000000000000000000F8000037
:105180000000000000333000000000100C06100C7E
:105190000600000000000000000040C07840C07819
:1051A0004000043F04043F040400007088FC083001
:1051B0000000001820FF211E0000F008F000E01899
:1051C000000000211C031E211E0000F00888700052
:1051D00000001E2123241927211010160E000000A4
:1051E00000000000000000000000000000E01804C3
:1051F0000200000000071820400000020418E00030
:1052000000000040201807000000404080F080406F
:1052100040000202010F01020200000000F0000045
:1052200000000101011F0101010000000000000059
:10523000000080B0700000000000000000000000CE
:105240000000000101010101010100000000000057
:10525000000000303000000000000000000080600E
:105260001804006018060100000000E01008081093
:10527000E000000F102020100F00001010F80000B8
:1052800000000020203F202000000070080808884F
:10529000700000302824222130000030088888481F
:1052A00030000018202020110E000000C02010F84F
:1052B000000000070424243F240000F80888880820
:1052C00008000019212020110E0000E01088881825
:1052D0000000000F112020110E0000380808C83807
:1052E00008000000003F00000000007088080888E7
:1052F0007000001C222121221C0000E01008081070
:10530000E0000000312222110F00000000C0C000A8
:1053100000000000003030000000000000800000AD
:1053200000000000806000000000000080402010AD
:1053300008000001020408102000404040404040A6
:105340004000040404040404040000081020408009
:10535000000000201008040201000070480808083E
:10536000F0000000003036010000C030C828E8100E
:10537000E0000718272423140B000000C038E000C9
:105380000000203C23020227382008F88888887013
:105390000000203F202020110E00C030080808081F
:1053A0003800071820202010080008F80808081006
:1053B000E000203F202020100F0008F88888E8082F
:1053C0001000203F20202320180008F88888E808D3
:1053D0001000203F200003000000C03008080838FB
:1053E000000007182020221E020008F8080000080C
:1053F000F808203F210101213F20000808F8080893
:1054000000000020203F2020000000000808F808CD
:105410000800C08080807F00000008F888C028183D
:105420000800203F20012638200008F8080000006E
:105430000000203F20202020300008F8F800F8F875
:105440000800203F003F003F200008F830C000085F
:10545000F808203F200007183F00E0100808081057
:10546000E0000F10202020100F0008F8080808089E
:10547000F000203F210101010000E01008080810A1
:10548000E0000F18242438504F0008F888888888D6
:105490007000203F2000030C3020007088080808AE
:1054A00038000038202121221C00180808F80808BC
:1054B00018000000203F2000000008F80800000845
:1054C000F808001F202020201F000878880000C84E
:1054D0003808000007380E010000F80800F800083E
:1054E000F800033C0700073C030008186880806848
:1054F000180820302C03032C30200838C800C83886
:1055000008000000203F2000000010080808C838EC
:1055100008002038262120201800000000FE02028A
:1055200002000000007F40404000000C30C000003E
:105530000000000000010638C00000020202FE0068
:105540000000004040407F00000000000402020212
:105550000400000000000000000000000000000047
:105560000000808080808080808000020204000033
:10557000000000000000000000000000808080802B
:1055800000000019242222223F2008F80080800019
:105590000000003F112020110E00000000808080DC
:1055A0000000000E112020201100000000808088E3
:1055B000F800000E112020103F2000008080808025
:1055C0000000001F222222221300008080F0888821
:1055D00088180020203F202000000000808080806C
:1055E0008000006B94949493600008F800808080A1
:1055F0000000203F210000203F20008098980000FC
:1056000000000020203F202000000000008098982B
:10561000000000C08080807F000008F800008080CB
:105620008000203F24022D302000000808F80000F0
:1056300000000020203F20200000808080808080AB
:105640008000203F20003F20003F8080008080803D
:105650000000203F210000203F200000808080804B
:105660000000001F202020201F008080008080007C
:10567000000080FFA12020110E000000008080802B
:105680008000000E112020A0FF808080800080809C
:10569000800020203F2120000100000080808080C9
:1056A00080000033242424241900008080E08080BE
:1056B00000000000001F202000008080000000800B
:1056C0008000001F202020103F208080800000806C
:1056D000808000010E30080601008080008000807C
:1056E00080800F300C030C300F0000808000808021
:1056F00080000020312E0E3120008080800000804C
:10570000808080818E7018060100008080808080FB
:1057100080000021302C2221300000000000807C1D
:10572000020200000000003F404000000000FF00B7
:10573000000000000000FF0000000002027C80006A
:1057400000000040403F000000000006010102028E
:105750000404000000000000000000000000000041
:105760000000000000000000000000000000000039
:105770000000000000000000000000000000000029
:10578000000000F0F0F00000000000000000000148
:105790007F010000000000000000001C1C1C000035
:1057A000000000008060301C8C60301C0C00000089
:1057B00000000000000000000000000000000000E9
:1057C000000000000000000000E00000000000E019
:1057D00000000086E69F86868686E69F860000019A
:1057E0001F01010101011F010100000080C06020B4
:1057F000F820E0C00000000003070C18FF70E181F2
:1058000000000000070F10107F100F0700008060DD
:10581000206080000000E02000000F3020309F70EA
:10582000DC371030C0000000100E030007181018FD
:1058300007000000C02020E0C0000000000080E061
:105840001F38E88703C43C040000070F1810100B32
:10585000070D1010080000808C4C3800000000007C
:105860000000000000000000000000000000000038
:105870000000000000000000000000000000000028
:1058800080E0300804000000000000FEFF0100007E
:105890000000000000000000030F1820400000047A
:1058A0000830E0800000000000000000000001FF60
:1058B000FE0000000000004020180F030000000060
:1058C0000000000000000000C000000000000042D6
:1058D00066663C18FF183C66664200000000000047
:1058E0000300000000000000000000008000000035
:1058F0000000001010101010FF1010101010000009
:105900000000000003000000000000000000000094
:105910000000000000000000000000000000000087
:10592000000000808C4C38000000000000000000E7
:105930000000000000000000000000101010101017
:105940001010101010000000000000000000000007
:105950000000000000000000000000000000000047
:105960000000000000000000000000001C1C1C00E3
:105970000000000000000000000000000000E0380F
:105980000C000000000080701C030000000000609C
:10599000380E0100000000000000000080C0602000
:1059A0002060C080000000FEFF010000000001FF39
:1059B000FE000001070E181010180E07010000006D
:1059C000808080C0E000000000000000000000FFB8
:1059D000FF000000000000001010101F1F1010102A
:1059E00000000080402020202060C08000000003D4
:1059F0000300804020381F070000001C1A191818E7
:105A00001818181F00000080C020202060C08000EF
:105A10000000000303001010182FE78000000007AB
:105A20000F10101010180F070000000000000000F9
:105A3000C0E0F000000000C0B088868180FFFF80D9
:105A40008000000000000010101F1F101000000058
:105A5000E060606060606060000000003F10080867
:105A60000818F0E0000000070B101010101C0F03C6
:105A70000000000080C040202020E0C0000000FCAA
:105A8000FF211008080818F0E0000001070C1810AA
:105A90001010080F03000000C0E06060606060E06C
:105AA0006000000003000000E01807000000000094
:105AB0000000001F1F00000000000080C0602020C8
:105AC000202060C080000087EF2C1818303068CF8D
:105AD000830000070F0810101010180F07000000B7
