:020000040800F2
:10000000B8280020D9010008C10900082309000808
:10001000BD090008FF0700089D100008000000004F
:10002000000000000000000000000000F50E0008C5
:100030000308000800000000D30E00082D1000087F
:10004000F3010008F3010008F3010008F3010008C0
:10005000F3010008F3010008F3010008F3010008B0
:10006000F3010008F3010008F3010008F3010008A0
:10007000F3010008F3010008F3010008F301000890
:10008000F3010008F3010008F3010008F301000880
:10009000F3010008F3010008F3010008F301000870
:1000A000F3010008F3010008F3010008F301000860
:1000B000F3010008F3010008F3010008F301000850
:1000C000F3010008F3010008F3010008F301000840
:1000D000F3010008F3010008F3010008F301000830
:1000E000F3010008F3010008F301000800F002F832
:1000F00000F062F80AA090E8000C82448344AAF160
:100100000107DA4501D100F057F8AFF2090EBAE85D
:100110000F0013F0010F18BFFB1A43F0010318473B
:1001200058870000788700000A444FF0000C10F850
:10013000013B13F0070408BF10F8014B1D1108BF65
:1001400010F8015B641E05D010F8016B641E01F805
:10015000016BF9D113F0080F1EBF10F8014BAD1C55
:100160000C1B09D16D1E58BF01F801CBFAD505E073
:1001700014F8016B01F8016B6D1EF9D59142D6D3CD
:10018000704700000023002400250026103A28BFF5
:1001900078C1FBD8520728BF30C148BF0B607047F9
:1001A000642900F07580752900F072800020704786
:1001B0001FB51FBD10B510BD00F0ECFA1146FFF7DA
:1001C000F7FF03F0D5F800F00AFB03B4FFF7F2FFE6
:1001D00003BC00F00DFB00000948804709480047B8
:1001E000FEE7FEE7FEE7FEE7FEE7FEE7FEE7FEE7E7
:1001F000FEE7FEE704480549054A064B7047000044
:100200003D100008ED000008B8220020B8280020AA
:10021000B8240020B82400200FB41CB5074B06AA50
:100220007B4469460090059800F02BFA002069464F
:1002300000F03AFA1CBC5DF814FB000085040000D5
:1002400070B5044685690068C10601D5302600E016
:100250002026C00707D070BDD4E901213046904761
:10026000206A401C20626D1EF6D570BD70B5044634
:1002700085690078C00707D170BDD4E9012120202D
:100280009047206A401C20626D1EF6D570BD0000AC
:100290002DE9F0410646002410687529314616A55F
:1002A00010D0AFF30080002802DA404213A507E027
:1002B00031688A0701D512A502E0490704D511A5C6
:1002C000012401E0AFF3008000210A2206F1240797
:1002D00009E0B0FBF2FCB0FBF2F302FB1C00303093
:1002E00078541846491C0028F3D123462A46304644
:1002F000BDE8F04100F066B9000000002D000000EC
:100300002B000000200000002DE9F05F8946044624
:100310004FF0000ADFF874B1FB44C0F820A020467B
:10032000E1688847002874D0252806D0D4E9012147
:100330009047206A401C2062F1E700265F46204675
:10034000E16888472028054607DB312D05D278195A
:1003500010F8200C08B10643F1E7B00701D526F0EC
:100360000406C4F81CA00027C4F818A02A2D09D040
:10037000284601F073F938B304EB8708303DC8F81C
:10038000185019E059F8041B204604EB87029161CC
:10039000E1688847012F054618D1E069002820DA76
:1003A00026F020061DE0D8F8180000EB800005EBD1
:1003B00040003038C8F818002046E16888470546F4
:1003C00001F04CF90028EED1012F0AD02E2D08D1D2
:1003D0002046E16888477F1C0546022F46F020062C
:1003E000C4DBA069002803DA404246F00106A061A0
:1003F000F00701D026F010066C2D0BD0682D09D027
:100400004C2D39D06A2D35D0742D35D07A2D33D07E
:1004100016E038E0E1682F4620468847B842054696
:1004200009D16C2F26D04FF48060E1680643204646
:100430008847054604E06C2F1AD04FF480700643BD
:100440000DB3A5F14100192802D8203546F4006605
:100450004A462946204626604E46FFF7A1FE80B157
:1004600001280BD0F61D26F0070000F1080956E719
:100470004020E4E78020D8E70020D6E706F1040911
:100480004DE7284652E7206ABDE8F09FCB83000085
:10049000014A00F00FB900004C13002040EA0103AC
:1004A000024630B59B0710D14FF0013400E008C27E
:1004B00008C91D1B9D4315EAC41FF8D013F0FF01A6
:1004C00002F8011B0DD01B0AF8E711F8013B002BC5
:1004D00002F8013B05D011F8013B002B02F8013B6B
:1004E000F3D130BD4FF000020429C0F0128010F0AB
:1004F000030C00F00381CCF1040CBCF1020F18BF17
:1005000000F8012BA8BF20F8022BA1EB0C0100F092
:10051000F5B85FEAC17C24BF00F8012B00F8012B7D
:1005200048BF00F8012B70474FF0013C50F8042BF6
:1005300051F8043B9A4221D1A2EB0C03934313EAF6
:10054000CC1317D150F8042B51F8043B9A4215D123
:10055000A2EB0C03934313EACC130BD150F8042BFA
:1005600051F8043B9A4209D1A2EB0C03934313EADE
:10057000CC13DBD04FF00000704700BFD01A01BA97
:10058000B1FA81F101F0180122FA01F0CB40C1F17A
:100590002001DBB2C0B2C01A2CFA01F3D11A914388
:1005A00011EAC311E6D1704770477047704710B524
:1005B00000F0CAF8006810BD10B5044600F0C4F899
:1005C000046010BD2DE9F0470D4699469246044659
:1005D00000F124080168880604D5E06921F01001C3
:1005E000216000E00120A84201DD471B00E0002758
:1005F000A1697A1902EB0900081AA0612078C006E7
:1006000002D42046FFF71CFE002608E0D4E90121B1
:100610001AF806009047206A401C761C20624E455E
:10062000F4DB2078C0060AD52046FFF709FE06E075
:10063000D4E9012130209047206A401C2062381EF6
:10064000A7F10107F4DC07E0D4E9012118F805005F
:100650009047206A401C2062281EA5F10105F3DCAA
:100660002046FFF703FE2078000602D50220BDE8F1
:10067000F0870120FBE7000001694A1C026108784D
:10068000704700B58FB0CDE90131002105910549D2
:100690007944CDE9031011466846FFF735FE0FB0E7
:1006A00000BD0000E5FFFFFF0A6802F8010B0A60C9
:1006B000704700002DE9F04115460E46040002D1B6
:1006C0002C6804B90BA4204600F052F804442078AA
:1006D00070B127463146384600F03AF80444207895
:1006E00010B1002004F8010B38462C60BDE8F08101
:1006F0000027F9E7000000004FF0000200B51346A4
:1007000094469646203922BFA0E80C50A0E80C5031
:10071000B1F12001BFF4F7AF090728BFA0E80C50E2
:1007200048BF0CC05DF804EB890028BF40F8042BDB
:1007300008BF704748BF20F8022B11F0804F18BF48
:1007400000F8012B70470000004870475422002039
:1007500030B503461D781DB10A4603E0AC4201D115
:10076000181A30BD12F8014B002CF7D15B1CF1E7D1
:1007700030B503461D783DB10A4612F8014B1CB155
:10078000AC42FAD15B1CF5E7181A30BD004870473F
:10079000542200207546FFF7F9FFAE460500694672
:1007A000534620F00700854618B020B5FFF722FD1C
:1007B000BDE820404FF000064FF000074FF0000862
:1007C0004FF0000B21F00701AC46ACE8C009ACE8E3
:1007D000C009ACE8C009ACE8C0098D46704710B547
:1007E0000446AFF300802046BDE81040FFF7EDBCA3
:1007F00001491820ABBEFEE726000200704700BF8B
:10080000FEE770472DE9F041024600250026002052
:1008100000230024002791F803C00CF00F0591F885
:1008200003C00CF0100CBCF1000F03D091F802C013
:100830004CEA050591F800C0BCF1000F31D01468F6
:1008400000202BE04FF0010C0CFA00F3B1F800C0CF
:100850000CEA03069E4220D183004FF00F0C0CFAE5
:1008600003F7BC4305FA03FC4CEA040491F803C007
:10087000BCF1280F06D14FF0010C0CFA00FCC2F8B5
:1008800014C00AE091F803C0BCF1480F05D14FF045
:10089000010C0CFA00FCC2F810C0401C0828D1D38F
:1008A0001460B1F800C0BCF1FF0F34DD54680020C3
:1008B0002EE000F1080C4FF0010808FA0CF3B1F833
:1008C00000C00CEA03069E4221D183004FF00F0CBA
:1008D0000CFA03F7BC4305FA03FC4CEA040491F854
:1008E00003C0BCF1280F05D100F1080C08FA0CF880
:1008F000C2F8148091F803C0BCF1480F07D100F191
:10090000080C4FF0010808FA0CF8C2F81080401CDF
:100910000828CED35460BDE8F08141617047016181
:10092000704700BFFEE7000010B580210A48FFF7BE
:10093000F6FF40210848FFF7F2FF00F037F880216A
:100940000548FFF7EAFF00F031F840210248FFF7C1
:10095000E4FF00F02BF810BD000C014010B5802121
:100960000648FFF7DAFF40210448FFF7D8FF00F000
:100970001DF880210148FFF7D2FF10BD000C014097
:1009800010B580210848FFF7CAFF00F00FF840219A
:100990000548FFF7C4FF00F009F840210248FFF7BF
:1009A000BCFF00F003F810BD000C0140032000BFA5
:1009B000011EA0F10102D0B2FAD1704700BFFEE7DC
:1009C0007047000010B5002807DA0A07140E054A20
:1009D00000F00F031B1FD45403E00A07130E024A52
:1009E000135410BD18ED00E000E400E070B50024E1
:1009F0000CE0002506E00020074901EB0511085531
:100A0000681CC5B2802DF6DB601CC4B2102CF0DB74
:100A100000F05AF970BD00005013002010B50446D4
:100A20001CB90021A62000F038FA012C03D10021C6
:100A3000A72000F032FA10BD2DE9FF4F84B08146A7
:100A40008A460020029083460698A0EB0905079885
:100A5000A0EB0A06CDF80490CDF800A0002D01DD32
:100A6000012705E00DB9002702E04FF0FF376D4286
:100A7000002E02DD4FF0010806E016B94FF0000825
:100A800002E04FF0FF387642B54201DD2C4600E02F
:100A90003446002003901EE0009AD1B2019AD0B2F1
:100AA000119A00F01FF8029828440290B34402986B
:100AB000A04205DD0298001B029001983844019085
:100AC000A34504DDABEB040B009840440090039871
:100AD000401C80B20390611C03988842DCDB08B0A4
:100AE000BDE8F08F2DE9F041154684460B460C46D3
:100AF0004FEAE17801EB5878C8F3C7024FEAE17892
:100B000001EB58784FEAE808A1EBC80808F0FF07A6
:100B10000124BC40E6B25DB1174C04EB0014A45CA8
:100B20003443DFF8548008EB001808F8024020E056
:100B3000114C04EB0014A45CE443DFF83C8008EBA8
:100B4000001808F802400C4C04EB0014A45C344379
:100B5000DFF8248008EB001808F80240064C04EB8C
:100B60000014A45CE443DFF8108008EB001808F8D8
:100B70000240BDE8F08100005013002008B50121BB
:100B8000082000F0A7F90121042000F0A3F9C020FB
:100B9000ADF8000014208DF8030003208DF802004A
:100BA00069464748FFF72EFEC0214548FFF7B7FECC
:100BB0000420ADF8000010208DF8030003208DF80C
:100BC000020069463F48FFF71DFE04213D48FFF73C
:100BD000A6FE04213B48FFF7A0FE0A2000F05AFFC2
:100BE00004213848FFF79BFE0021AE2000F055F9A4
:100BF0000021084600F051F90021102000F04DF9C5
:100C00000021B02000F049F90021DC2000F045F976
:100C10000021084600F041F90021812000F03DF953
:100C200000216F2000F039F90021202000F035F973
:100C30000021A42000F031F90021A62000F02DF9B8
:100C40000021A82000F029F900217F2000F025F9DB
:100C50000021D32000F021F90021084600F01DF901
:100C60000021C02000F019F90021A02000F015F9A2
:100C70000021D52000F011F90021802000F00DF9AD
:100C80000021D92000F009F900211D2000F005F90C
:100C90000021DB2000F001F90021352000F0FDF8F3
:100CA0000021AD2000F0F9F80021802000F0F5F8D7
:100CB000FFF79CFE0021AF2000F0EFF808BD000018
:100CC000000C01400008014070B500241CE004F154
:100CD000B001C8B2002100F0E0F80021084600F0A1
:100CE000DCF80021102000F0D8F8002508E00849C1
:100CF00001EB0511085D012100F0CFF8681CC5B2B9
:100D0000802DF4DB601CC4B2102CE0DB70BD000051
:100D1000501300202DE9FE4F0746884692461C4698
:100D20000197CDF80080082C02D14FF006091FE092
:100D30002046E31704EB5373DB1021464FEAE47CB3
:100D400004EB5C7C4FEAEC0CA4EBCC0CBCF1000F88
:100D500002D04FF0010C01E04FF0000C634422463A
:100D600004EBD27C4FEA6C0C03FB0CF303F0FF099D
:100D7000AAF12000C6B200255EE0082C07D106EBE0
:100D800046002F4901EB400010F805B01DE00C2C87
:100D900007D106EB46002B4901EB800010F805B0A7
:100DA00013E0102C05D1284800EB061010F805B010
:100DB0000BE0182C07D106EBC600244901EB80009C
:100DC00010F805B001E0BDE8FE8F002002901CE0A5
:100DD0000BF0010028B1414638460C9AFFF782FE1D
:100DE00009E00C9808B9012000E0002002464146C5
:100DF0003846FFF777FE4FEA6B0B08F1010000F071
:100E0000FF080298401CC0B2029002980828DFDB5D
:100E1000781CC7B2082C0BD004EBD4714A1001998E
:100E2000791A8A4204D1019F00980830C0B200901C
:100E3000DDF80080681CC5B24D459EDB00BFC2E7EF
:100E4000326400085A660008CE6A0008BE700008C6
:100E50002DE9F84106460F4614461D46DDF81C8074
:100E600013E0CDF8008022782B4639463046FFF754
:100E700051FF082D02D1B01DC6B205E0284605EB92
:100E8000D07106EB6101CEB2641C2078202802DB11
:100E900020787E28E5DDBDE8F88170B505460C4672
:100EA000FFF742FD782000F027F8FFF769FD1CB13D
:100EB000402000F021F802E0002000F01DF8FFF7CC
:100EC0005FFD284600F018F8FFF75AFDFFF746FDD2
:100ED00070BD704729B1064A92690243044B9A617A
:100EE00004E0034A92698243014B9A617047000013
:100EF000001002407047000070B5044600251BE05A
:100F000004F0800020B180210D48FFF708FD03E0C8
:100F100080210B48FFF701FDFFF748FD40210848FD
:100F2000FFF7FDFCFFF742FD40210548FFF7F5FC08
:100F30006006040E681CC5B2082DE1DB70BD000020
:100F4000000C014010B500F001F810BD0CB50020F8
:100F5000019000903348006840F4803031490860C7
:100F600000BF3048006800F4003000900198401C39
:100F70000190009818B90198B0F5A06FF1D12948F7
:100F8000006800F4003010B10120009001E0002062
:100F900000900098012843D12348006840F01000D9
:100FA000214908600846006820F0030008600846F0
:100FB000006840F0020008601A484068194948601B
:100FC0000846406848600846406840F480604860D1
:100FD0000846406820F47C1048600846406840F4A9
:100FE000E81048600846006840F08070086000BF64
:100FF0000C48006800F000700028F9D009484068EB
:1010000020F00300074948600846406840F00200AD
:10101000486000BF0348406800F00C000828F9D180
:101020000CBD000000100240002002400248006891
:10103000401C0149086070473413002010B5134864
:10104000006840F0010011490860084640681049F6
:1010500008400E494860084600680E4908400B49A0
:1010600008600846006820F4802008600846406850
:1010700020F4FE0048604FF41F008860FFF762FF15
:101080004FF000600449086010BD000000100240ED
:101090000000FFF8FFFFF6FE08ED00E000BFFEE7EE
:1010A0002DE9F0418A4890F87C0008B9BDE8F0814C
:1010B0008848007800287DD00020864908700846BE
:1010C0004078022803D008464078032872D10021D6
:1010D000814800F050F902F0E7F97D49C1F8980025
:1010E000084690F89100012802D1022081F8910071
:1010F000774890F89100764981F87A00084690F890
:101100007900401C81F87900084690F8921090F818
:101110007920653081546E4991F8930004F024FFE2
:101120006B4991F879206D4941F82200684890F8A0
:101130007A00022820D1664991F879206531895CCE
:101140004942C1EBC102C2EB811004F0F5FE6449D3
:10115000C8620846C06A0863002048638863614823
:10116000C86308640846C06C48640846006D88641B
:10117000012081F856006DE0554991F879206531DC
:10118000895C0901484204F0D7FE0446504890F8B3
:101190007920524850F82210204604F0FDFC4F49B7
:1011A00030390860084600684860494890F879106E
:1011B0004A4800E089E050F8210048493039C862C7
:1011C000002048628862424890F87A10401C405CD7
:1011D00001281DDD3E4991F87A20491C895C481E92
:1011E00004F0AAFE074639464FF0864004F048FD59
:1011F0000546374991F879206531885C04F0B4FEE2
:101200000646294604F0F8FE044600F041F900E0E5
:10121000002032493039C1F880000846D0F88000FB
:10122000C1F88400002081F88800294890F87A00ED
:10123000072805D14FF086402B49C860086109E0B6
:10124000234890F87A00092804D14FF081402749BB
:10125000486088601E4890F87A00082802D102F0A1
:101260009BFC1DE01A4890F87A00042803D120481E
:1012700000F0D2FB14E0164890F87A00052805D15A
:101280001B49891C881E00F0B3FB09E0104890F848
:101290007A00062804D11649C91C881E00F0A8FB54
:1012A00001200B490870084690F8940020B10020F6
:1012B00081F87A0081F894000120054981F89500B1
:1012C000002081F87B0081F87C0000BFEEE6000082
:1012D000501B00202821002016000020741C002034
:1012E000EC1B002000002041DC1C00201C21002001
:1012F0003C0000202DE9F04781460F480088401C43
:101300000D4908800846008804F02EFE80460B49EF
:1013100004F072FE0446204602F014FE0746084917
:1013200004F06AFE06464FF08A4104F035FC05469B
:1013300004F09CFDBDE8F08722000020CDCC4C3DA0
:101340000080BB4470B50446049D601AEE1A7043D9
:10135000561A90FBF6F0184470BD70B505460C4661
:10136000204603F0EBFA70BD70B505460C462046EA
:1013700003F098FB70BD70B505460C46204603F09F
:10138000B9FB70BD70B505460C46204603F0A0FBC6
:1013900070BD70B505460C46204603F045FB70BD98
:1013A0002DE9F04180460C4615461E46069F3B46F9
:1013B00032462946204603F0B3F8BDE8F0812DE916
:1013C000F04107460C4615461E4632462946204641
:1013D00003F04CFABDE8F08170B505460C46204696
:1013E00003F066FB70BD2DE9F84381460C461546B7
:1013F0001E46DDE908783B46324629462046CDF8B0
:10140000008003F007F9BDE8F8832DE9F843814631
:101410000C4615461E46DDE908783B46324629460D
:101420002046CDF8008003F04FFABDE8F8832DE99F
:10143000F04180460C4615461E46069F3B46324606
:101440002946204603F088F8BDE8F0812DE9F041F7
:1014500007460C4615461E4632462946204603F0EE
:10146000B1F8BDE8F08170B506460C461546294630
:10147000204603F011FB70BD70B505460C462046B2
:1014800004F05AFD06463146284602F017F870BDB2
:1014900010B50446204600F04DFA10BD4100080288
:1014A00018BF04200A0E18BF40F001004FF07F4221
:1014B00032EA010108BF40F00200012808BF052000
:1014C000704700214FF07E5004F0DABB012104F098
:1014D00072BF04F061BB0021084604F0D1BB61215A
:1014E0004FF0E04004F067BF6FF05E01080704F0C2
:1014F00062BF00002DE9F04D0D4614464FF07F41CC
:10150000B1EB440F9EBF4FF0FF312960BDE8F08D75
:101510004FF0004040EA0421C4F3C750783810F07F
:101520001F024A4B4FEA601CC2F120067B44C4F301
:10153000C750A0F178004FEA601003EB800053F829
:101540002C3008BFD0E901C612D0D0F804C09340B7
:101550002CFA06F73B4387680CFA02FC27FA06F8D8
:10156000C06807FA02F2F0404CEA080C42EA0006B2
:10157000A3FB0132ACFB01C0A6FB016101EB0C0631
:101580008E4234BF4FF0010C4FF0000CC118614483
:10159000BCF1000F02D0814202D903E0814201D2A6
:1015A000012000E00020104400F120024FEA9218D0
:1015B0008006CA0C40EA42304F03C5F8008004F0B0
:1015C000BBFC8246384604F0CFFC6FF0120104F0F9
:1015D000F2FE0746304604F0C7FC6FF0250104F028
:1015E000EAFE83463946504604F0D6FA594604F0DE
:1015F000D3FA00F500666FF30B065146304604F04F
:1016000033FE394604F030FE594604F023FE1049FB
:1016100004F0F2FC07460F49304604F0EDFC394671
:1016200004F0BAFA07460C49304604F0E5FC3946A6
:1016300004F0B2FA14F0004F08BFBDE8F08DC8F115
:10164000805180F000402960BDE8F08D08730000F3
:10165000DB0FC92F22AAFD290000C92F30380A2824
:1016600001D201207047002070470000002003498C
:1016700048604FF081408860704700001C210020C6
:1016800010B500F01DF80C48007898B100200A4908
:10169000087008464078022802D0032809D100E0EB
:1016A00000BF0820054981F87A00032081F87B00FB
:1016B00000BF00BF10BD000028210020501B0020EB
:1016C0002DE9FC4147494848FFF786FE474946480F
:1016D000FFF743FE00F10804204604F02DFC4449C6
:1016E000886205222831081F00F088F80522414948
:1016F000081F00F083F801213B48FFF735FE3B4B04
:10170000102208213848FFF75AFE3948816A4FF005
:10171000814004F041FA06464FF0814104F03CFA62
:10172000054604F0A3FB04B2304B203310222146BF
:101730002D48FFF744FE02241CE02E490839886832
:101740004FF0804104F028FA07464FF0824104F040
:1017500023FA064604F08AFB05B2244800EB441342
:10176000601E162101EB001002B229461E48FFF749
:1017700026FE641C2048807AA042DEDC1D49083920
:10178000486804F073FB04B21B48807A801E042171
:10179000C1EB001002231C22214600901248FFF7E3
:1017A000FFFD02211048FFF7DFFD1149486A04F0F0
:1017B0005DFB04B20020102123460422CDE9001075
:1017C00011460948FFF70FFE0B4890F88D0038B915
:1017D000802003460022114600900348FFF7E0FDF9
:1017E000BDE8FC814382000816000020241200207E
:1017F000441C002024210020501B00202DE9F0472C
:1018000004460D4616462968206804F0FBFA28D0E5
:101810002968206804F028FD814604F091F921F040
:10182000004107464FF080420F4B04F0F9F802D216
:101830002868206015E00D49885D04F095FB82461C
:101840000B4904F01DFA80462168286804F00CFD5D
:101850008146414604F014FA0746216804F09CF9D9
:101860002060BDE8F08700003333C33FCE1B00206B
:101870000000204110B5002404E00020064908556E
:10188000601CC4B2042CF8DB022003498870C870C5
:1018900000F06CFC10BD00003C00002010B51F489B
:1018A00000681F490860084600681E4909688842A8
:1018B00032D01B4800681B4908601B4991F885100D
:1018C000480000F0E7F81548006815490860084628
:1018D000006808BB01201549087000201449086001
:1018E00007E013480068401C11490860012000F01F
:1018F000D1F80A4800680028F3D00B4890F8860019
:101900000B490968B1EB400F03DA02200749487020
:1019100002E003200549487010BD000038812142D3
:101920002413002028130020501B00202821002011
:101930002C1300202DE9F041C0F3C751A1F17F0520
:101940000446172DA8BFBDE8F0814FF07F47154929
:10195000002D0EDA04F020F9B7EB400F1ED300285B
:101960001CDD002CC8BF4FF07E54B8BF4FF00044C0
:1019700014E00D4A22FA05F6344208BFBDE8F081B2
:1019800004F00AF9B7EB400F08D3002806DD002C5D
:1019900003DD4FF40000E8400444B4432046BDE8B2
:1019A000F0810000CAF24971FFFF7F00014606483E
:1019B0008166002005E0FF23034AD8321354421CFD
:1019C000D0B26428F7DB7047F41E00200649896E08
:1019D000095C09B9012100E00021034A926E11540B
:1019E0000121024A11717047F41E00204421002099
:1019F000014AD06611677047F41E0020044AD26E77
:101A00001070034A126F11700122024B1A71704755
:101A1000F41E0020442100200146064841660020B3
:101A200005E0FF23034A74321354421CD0B26428E9
:101A3000F7DB7047F41E002010B514481449086005
:101A4000084600684FF4FA51B0FBF1F4B4F1807F1E
:101A500001D3012011E024F07F40401E4FF0E0212F
:101A600048610F214FF0FF30FEF7ACFF00204FF030
:101A7000E021886107200861002008B100BFFEE76F
:101A80000F214FF0FF30FEF79DFF10BD00A24A046A
:101A90003813002000B5024601F006FD034600BFE2
:101AA00001F002FDC01A9042FAD300BD10B5032127
:101AB000224801F097FA2248007800283CD0002004
:101AC0001F4908700846407838B1012804D0022820
:101AD0000DD003282FD103E000BF01F061F92AE007
:101AE0000021184890F879206530815400BF1548CE
:101AF00090F879106530405C20B10A280AD00B2894
:101B000017D10EE002200F4981F87A00032081F8F6
:101B10007B000EE00323094A0BA112A003F0EAFBAD
:101B200007E00420074981F87A00022081F87B0051
:101B300000BF00BF00BF00BF10BD00004401002077
:101B400028210020501B002048656C6C6F20576FC7
:101B5000726C64210A4C696E6520320A4C696E65AC
:101B6000203300004D6573736167652044656D6FB8
:101B70000000000010B5204820490A6802604A6849
:101B800042600A890281897A81721D48007850B9C1
:101B90004FF480711B48FEF7A5FC0120184908701E
:101BA00002F0CAFF10BD00201349491F0870488089
:101BB000002412E01048401F408820441149095C6D
:101BC0000D48005D814206D00B48401F0078401C44
:101BD0000949491F0870601CC4B20B2CEADB064897
:101BE000401F0078012802DC00F00EF801E002F04E
:101BF000A3FF00BFD6E7000049210020DC860008D3
:101C000030130020542100200B21134A5180002062
:101C100008E0114949880144104A525C10490A54AD
:101C2000411CC8B21328F4DB0B49498813310A4A16
:101C30005180002008E0084949880144074A515C66
:101C4000084A1154411CC8B20428F4DB02494988EF
:101C5000091D014A51807047442100205421002071
:101C6000CE1B00203C00002000211D4A5180002096
:101C700009E01B49491D095C194A52880244194B65
:101C80009954411CC8B20B28F3DB154949880B3124
:101C9000134A5180002008E01349095C104A528819
:101CA0000244104B9954411CC8B21328F4DB0C4970
:101CB000498813310A4A5180002008E00B49095C29
:101CC000074A52880244074B9954411CC8B2042861
:101CD000F4DB03494988091D014A5180704700001F
:101CE0004421002054210020CE1B00203C00002075
:101CF00010B500F079F900B910BD764890F88D0064
:101D000000286CD0734890F87D00012806D0022886
:101D10001CD003282ED0042858D143E0002410E022
:101D2000204604EBD0714910A4EB410139B16A4857
:101D30000068005D00F0AA00674909680855601C4A
:101D400084B2664800888442EADB47E000240CE065
:101D5000204604EBD0714910A4EB410119B10020D9
:101D60005D4909680855601C84B25C48008884425B
:101D7000EEDB33E0002410E0204604EBD071491084
:101D8000A4EB410139B954480068005D00F05500EA
:101D9000514909680855601C84B250480088844243
:101DA000EADB1BE000240CE0204604EBD071491074
:101DB000A4EB410119B90020474909680855601C86
:101DC00084B2464800888442EEDB07E004204149A3
:101DD00081F87B00002081F87D0000BF70E03D4865
:101DE00090F87D00012806D002281CD0032830D0AE
:101DF00004285CD145E0002410E0204604EBD071BB
:101E00004910A4EB410139B133480068005D40F04E
:101E1000AA00314909680855601C84B22F4800881F
:101E20008442EADB4BE000240EE0204604EBD07154
:101E30004910A4EB410129B127480068005D2649FB
:101E400009680855601C84B2244800888442ECDB91
:101E500035E0002410E0204604EBD0714910A4EBDB
:101E6000410139B91C480068005D40F055001A492D
:101E700009680855601C84B2184800888442EADB6F
:101E80001DE000240EE0204604EBD0714910A4EBC5
:101E9000410129B910480068005D0F4909680855DB
:101EA000601C84B20D4800888442ECDB07E004200B
:101EB000084981F87B00002081F87D0000BF00BF49
:101EC000044890F87D00401C024981F87D0000BF65
:101ED00012E70000501B002010000020140000201A
:101EE00010B500F081F800B910BD3C4890F87D00B5
:101EF000012806D002281CD003282ED0042858D14F
:101F000043E0002410E0204604EBD0714910A4EB1C
:101F1000410139B132480068005D00F0AA00304943
:101F200009680855601C84B22E4800888442EADBA8
:101F30004AE000240CE0204604EBD0714910A4EBE9
:101F4000410119B10020264909680855601C84B276
:101F5000244800888442EEDB36E0002410E020466E
:101F600004EBD0714910A4EB410139B91C48006859
:101F7000005D00F055001A4909680855601C84B2DC
:101F8000184800888442EADB1EE000240CE020466A
:101F900004EBD0714910A4EB410119B9002010499C
:101FA00009680855601C84B20E4800888442EEDB44
:101FB0000AE0012002F09EFD0420084981F87B0020
:101FC000002081F87D0000BF00BF044890F87D002C
:101FD000401C024981F87D0000BF85E7501B0020AE
:101FE000100000201400002010B501F05DFA044636
:101FF00006480068211A064890F88400814201D200
:10200000002010BD014804600120FAE740000020D4
:10201000501B002010B5FFF7E7FF00B910BD02F01C
:1020200075FA474890F87A000A282ED2DFE800F0C7
:10203000052D080E13181D27222A03F0C1FA25E0EA
:10204000404A4149414802F007F91FE00321404856
:1020500000F0C8FF1AE004213E4800F0C3FF15E07D
:1020600005213D4800F0BEFF10E006213B4800F08E
:10207000B9FF0BE008213A4800F0B4FF06E002F097
:10208000A5FF03E0FFF71CFB00E000BF00BF2C48EA
:1020900090F87D00012806D0022821D0032837D0EF
:1020A000042837D135E0002415E0204604EBD07138
:1020B0004910A4EB410121B900202A4909680855BB
:1020C00007E028480068005D00F0550025490968D0
:1020D0000855601C84B2244800888442E5DB24E073
:1020E000002410E0204604EBD0714910A4EB41011C
:1020F00039B91C480068005D00F0550019490968AD
:102100000855601C84B2184800888442EADB0CE061
:1021100000BF0AE000200A4981F89500042081F8F8
:102120007B00002081F87D0000BF00BF044890F8CC
:102130007D00401C024981F87D0000BF6EE7000071
:10214000501B00205C820008C400002044000020D6
:1021500044010020C40200202403002004040020C5
:10216000840F0020100000201400002008B5012179
:102170000820FEF7AFFE4FF44050ADF800004820B5
:102180008DF8030003208DF8020069460748FEF72A
:1021900039FB4FF48040ADF8000048208DF8030073
:1021A00069460248FEF72EFB08BD0000000C014006
:1021B00020480068204988702048D0F83401C87051
:1021C0000846007938B90846807820B90846C078B2
:1021D0004871012008711848007950B3164880787A
:1021E00038B31548C07808B9012000E00020124932
:1021F00088710846407940B10846807928B1104876
:1022000090F88C004870012008700B48407968B93C
:102210000948807950B90A4890F88C0008B9012023
:1022200000E00020044948700120087000200249A5
:10223000087170473081214228210020008021420E
:10224000501B002000B50248FFF7E6FB00BD000070
:102250003C00002010B50421264800F0C3FE2648AB
:102260000078002845D000202349087008464078AF
:1022700038B1012804D002280DD0032838D103E05A
:1022800000BF00F08DFD33E000211C4890F879205C
:102290006530815400BF194890F879106530405C72
:1022A00020B1012809D0022820D112E003201349CF
:1022B00081F87A0081F87B0018E005200F4981F849
:1022C0007A00022081F87B000D49881EFFF790FB01
:1022D0000CE00620094981F87A00022081F87B0091
:1022E0000749491C881EFFF783FB00BF00BF00BFE2
:1022F00000BF10BDC402002028210020501B002078
:102300003E00002000B50249881EFFF771FB00BDAA
:102310003F00002010B50621FA4800F063FEFA489D
:102320000078002877D00020F749087008464078E8
:1023300038B1012804D002280DD0032803D103E0CE
:1023400000BF00F02DFD1DE30021F04890F879203A
:102350006530815400BFED4890F879106530405CDD
:10236000522874D2DFE800F02931323B3C454E5808
:10237000616A747D868F98A1AAF4FDF1F0EFEEED0D
:10238000ECEBEAE9E8E7E6E5E4E3E2E1E0DFDEDD05
:10239000DCDBDAD9D8D7D6D5D4D3D2D1D0CFCECDF5
:1023A000CCCBCAC9C8C7C6C5C4C3C2C1C0BFBEBDE5
:1023B000BCBBBAB9B8B7B6B5B4B30420D34981F839
:1023C0007A00032081F87B00DAE2D9E2CF4890F866
:1023D00079206530815C0020FFF710FBD0E2CFE26E
:1023E000CA4890F879206530815C4120FFF706FBF0
:1023F000C6E2C64890F879206530815C4220FFF73C
:10240000FDFABDE2C14890F879206530815C432037
:10241000FFF7F4FAB4E2B6E2BC4890F879206530F0
:10242000815C4420FFF7EAFAAAE2B84890F87920E4
:102430006530815C4520FFF7E1FAA1E2B34890F8EE
:1024400079206530815C4620FFF7D8FA98E296E261
:10245000AE4890F879206530815C4720FFF7CEFACE
:102460008EE2AA4890F879206530815C4820FFF719
:10247000C5FA85E2A54890F879206530815C49204D
:10248000FFF7BCFA7CE2A14890F879206530815CC6
:102490004A20FFF7B3FA73E29C4890F87920653040
:1024A000815C4B20FFF7AAFA6AE2984890F87920FD
:1024B0006530815C4C20FFF7A1FA61E2934890F807
:1024C00079206530815C4D20FFF798FA58E255E29B
:1024D0004BE241E237E22DE22BE221E217E20DE28C
:1024E00003E201E2F7E1EDE1E3E1D9E1CFE1C5E1AA
:1024F000C3E1B9E1AFE1A5E19BE191E187E17DE1D4
:1025000073E171E167E15DE153E149E13FE135E10B
:102510002BE121E117E10DE103E1F9E0E9E0E7E07A
:10252000DDE0D3E0C9E0BFE0B5E0ABE0A1E097E0DB
:102530008DE083E081E077E06DE063E059E04FE01B
:1025400045E03BE031E027E01DE013E009E0FFE774
:102550006E4890F879206530815C4E20FFF74EFA86
:102560000EE26A4890F879206530815C4F20FFF7D1
:1025700045FA05E2654890F879206530815C502085
:10258000FFF73CFAFCE1614890F879206530815C06
:102590005120FFF733FAF3E15C4890F87920653079
:1025A000815C5220FFF72AFAEAE1584890F8792036
:1025B0006530815C5320FFF721FAE1E1534890F840
:1025C00079206530815C5420FFF718FAD8E14F4834
:1025D00090F879206530815C5520FFF70FFACFE144
:1025E0004A4890F879206530815C5620FFF706FA5A
:1025F000C6E1464890F879206530815C5720FFF7A6
:10260000FDF9BDE1414890F879206530815C5820A2
:10261000FFF7F4F9B4E13D4890F879206530815C2A
:102620005920FFF7EBF9ABE1384890F87920653095
:10263000815C5A20FFF7E2F9A2E1A1E1334890F86A
:1026400079206530815C3020FFF7D8F998E12F4878
:1026500090F879206530815C3120FFF7CFF98FE168
:102660002A4890F879206530815C3220FFF7C6F95E
:1026700086E1264890F879206530815C3320FFF7A9
:10268000BDF97DE1214890F879206530815C3420E6
:10269000FFF7B4F974E11D4890F879206530815C4A
:1026A0003520FFF7ABF96BE1184890F879206530D9
:1026B000815C3620FFF7A2F962E1144890F8792096
:1026C0006530815C3720FFF799F959E10F4890F8A0
:1026D00079206530815C3820FFF790F950E10B4894
:1026E00090F879206530815C3920FFF787F947E160
:1026F00046E1064890F879206530815CB120FFF70B
:102700007DF93DE10404002028210020501B002019
:102710009D4890F879206530815CC220FFF76EF902
:102720002EE1994890F879206530815CC320FFF74D
:1027300065F925E1944890F879206530815CC420E2
:10274000FFF75CF91CE1904890F879206530815CD6
:10275000C520FFF753F913E18B4890F879206530D5
:10276000815CC620FFF74AF90AE1874890F8792092
:102770006530815CC720FFF741F901E1824890F89C
:1027800079206530815CC820FFF738F9F8E07E4891
:1027900090F879206530815CC920FFF72FF9EFE0D0
:1027A000794890F879206530815CCA20FFF726F9D6
:1027B000E6E0754890F879206530815CCB20FFF722
:1027C0001DF9DDE0704890F879206530815CCC20FF
:1027D000FFF714F9D4E06C4890F879206530815CFB
:1027E000CD20FFF70BF9CBE0CAE0674890F87920DD
:1027F0006530815C8020FFF701F9C1E0624890F804
:1028000079206530815C8120FFF7F8F8B8E05E48F8
:1028100090F879206530815C8220FFF7EFF8AFE017
:10282000594890F879206530815C8320FFF7E6F8FD
:10283000A6E0554890F879206530815C8420FFF748
:10284000DDF89DE0504890F879206530815C852066
:10285000FFF7D4F894E04C4890F879206530815C1B
:102860008620FFF7CBF88BE0474890F87920653059
:10287000815C8720FFF7C2F882E081E0424890F84F
:1028800079206530815CC120FFF7B8F878E03E48D8
:1028900090F879206530815CB220FFF7AFF86FE0E7
:1028A000394890F879206530815CB020FFF7A6F8B0
:1028B00066E0354890F879206530815CD120FFF7DB
:1028C0009DF85DE0304890F879206530815CD42037
:1028D000FFF794F854E02C4890F879206530815C3B
:1028E000B320FFF78BF84BE04AE0274890F87920B7
:1028F0006530815CD220FFF781F841E0224890F8F2
:1029000079206530815CD520FFF778F838E01E48E3
:1029100090F879206530815CD320FFF76FF82FE0C5
:10292000194890F879206530815CD620FFF766F869
:1029300026E025E0144890F879206530815CDA20A3
:10294000FFF75CF81CE0104890F879206530815C56
:10295000D920FFF753F813E00B4890F87920653041
:10296000815CD820FFF74AF80AE0074890F8792000
:102970006530815CD720FFF741F801E000E000BF3F
:1029800000BF00BF00BF10BD501B002000B50249B2
:10299000881EFFF72DF800BD3E00002010B5052170
:1029A0002A4800F01FFB2A48007800284DD000205C
:1029B000274908700846407838B1012804D0022819
:1029C0000DD0032840D103E000BF00F0E9F93BE05F
:1029D0000021204890F879206530815400BF1D48BF
:1029E00090F879106530405C07282BD2DFE800F0C2
:1029F000040C0D16172029000420164981F87A00CE
:102A0000032081F87B001DE01CE0124890F879203B
:102A10006530815C0020FEF7F1FF13E012E00D4805
:102A200090F879206530815C0120FEF7E7FF09E02E
:102A3000084890F879206530815C0220FEF7DEFFBF
:102A400000E000BF00BF00BF00BF10BD2403002096
:102A500028210020501B002010B5254890F879004F
:102A6000401C234981F879000021214890F8792001
:102A700065308154653890F879201E4840F822105E
:102A800000201B4908701B49303908604FF0834013
:102A9000486000204862C862C1F8800001201449E3
:102AA00081F87D00002081F87B00084690F87A00CC
:102AB000801E08281AD2DFE800F00419070A0D105A
:102AC000131601F015FB11E0FFF7BCFB0EE0FFF75A
:102AD0005DFF0BE0FFF716FC08E002F047FA05E0A7
:102AE00001F05AF802E0FEF7C1FD00BF00BF10BDC3
:102AF000501B0020741C002010B50021194890F8CC
:102B0000792065308154653890F87920164840F86E
:102B10002210144890F87900401E124981F879007B
:102B2000002008701049303908604FF08340486039
:102B30000020C1F8800001200A4981F87D000020B2
:102B400081F87B00084690F87A00012802D002281C
:102B500006D102E001F0BAFA02E001F0C9FA00BFC2
:102B600000BF10BD501B0020741C002038B50A495E
:102B7000D1F8940003F07AF9623004B20620009094
:102B80000548B0F89000401D02B2062321460348D4
:102B9000FEF706FC38BD0000441C00201600002093
:102BA0002DE9F8430D49D1F8940003F05FF95F3047
:102BB00004B20A48B0F89000801C05B20C263746D3
:102BC0004FF001083B46324629462046CDF80080AA
:102BD00001F0A9FD00BFBDE8F8830000441C0020FF
:102BE00038B504461048416E601E085C20B90FA13C
:102BF0000F48FEF7CEFB16E00B48416E601E085CE6
:102C00005A280CDC0848416E601E0D5C00200090C4
:102C10008DF80050684601F007FF00BF03E005A1F2
:102C20000348FEF7B6FB38BDF41E00204F464600B1
:102C3000160000203F00000010B504460D48416E0C
:102C4000601E085C20B1012807D002280FD109E0DE
:102C500009A10A48FEF79DFB09E009A10748FEF714
:102C600098FB04E007A10548FEF793FB00BF00BFF7
:102C700010BD0000F41E00204F4646001600002044
:102C8000564F4C004252490070B505460C462D493E
:102C9000D1F8940003F0EAF8001D06B205EB4413E6
:102CA0002848B0F890000C3002B231462648FEF7B2
:102CB00086FB2449D1F8940003F0D8F85F3006B2BF
:102CC0002048B0F890000C3002B231461E48FEF7A2
:102CD000CAFB05EB441000782B280DD004DC232818
:102CE00026D024282CD127E03D2816D07E2827D1B5
:102CF000204600F02DF823E0FFF752FF1348005D57
:102D0000FF2809D01148D838816ED830005D085CA2
:102D1000012801D1FFF72AFF12E0FFF741FF0B481E
:102D2000D838006F0078A04201D1FFF71FFF07E0FD
:102D30002046FFF781FF03E02046FFF751FF00BF69
:102D400000BF70BD441C002016000020CC1F0020D6
:102D500070B504460F48005DFF2802D00D48005DA5
:102D600000E0601EC5B2122D0AD10A487438406EC8
:102D7000405D094A52F820100848FEF70AFB08E0B7
:102D800004487438406E465D304601F0F7FD00BFE0
:102D900000BF70BD681F0020240000201600002026
:102DA0002DE9F0418B4890F8880000287DD18A48B1
:102DB000407810B101284ED192E0884890F87910FF
:102DC0006530405C002848D1844890F88A0088B378
:102DD0008248007870B301207E4981F888007F48DE
:102DE00090F87A10401C405C401EC1B27B4890F8BD
:102DF000792065308154653890F87A10401C405C29
:102E00007449D1F88C10884215DD7549734890F8E3
:102E100079207048303040F82210704991F87A20BB
:102E2000491C895C8022A2EB011003F085F86949F6
:102E3000486010E010E0694991F87A20491C895CEB
:102E4000491E080103F078F8644991F87920614936
:102E5000303141F82200B9E0B8E06048007828B38A
:102E60005E4890F879106530405C401EC1B25B4806
:102E700090F8792065308154564948684FF0834175
:102E800002F0FEFE80F00044544991F8792065314B
:102E9000885C03F069F80546214603F079F80BD207
:102EA0004C4948684FF0834101E090E017E002F0A0
:102EB00073FE4849486011E0484991F87920454936
:102EC000303151F822004FF0834103F0CDF94349EE
:102ED00091F879203F49303141F8220076E000BF77
:102EE0003E4890F879106530415C653890F87A205A
:102EF000401C805C401E81421DD1384890F88A00F9
:102F0000C0B136480078A8B10120324981F8880064
:102F10000021324890F879206530815400202D49F5
:102F2000486000212D4890F879202A48303040F838
:102F300022104BE04AE02948007890B3274890F8E7
:102F400079106530405C401CC1B2244890F879206B
:102F5000653081541F4948684FF0834102F090FE6C
:102F600006461C49D1F88C0002F0E6FF07463146C0
:102F700003F07AF90446194991F879206531895CA2
:102F8000481C02F0D9FF0546214603F001F909D299
:102F9000104948684FF0834103F066F90D494860D5
:102FA00012E012E00D4991F879200A49303151F8C8
:102FB00022004FF0834102F0EFFD084991F879209B
:102FC0000449303141F8220000E000BF00BFBDE8F5
:102FD000F0810000441C002028210020501B00200C
:102FE0000000E0422DE9FC5F06460D46DA49DB4869
:102FF000FEF7F2F9DA4890F879206530805C06EB4C
:103000004011D648FEF7A9F900F10804204602F065
:1030100093FFD4498862D249491C495D481E02F099
:103020008BFF814649464FF0864002F029FE074655
:10303000CB4991F879206531885C02F095FF804694
:10304000394602F0D9FF0446FEF722FAC549C1F815
:1030500084000222091D081FFEF7D0FB0222C1498D
:103060002831081FFEF7CAFBBD4890F87920BD48FB
:10307000303000EB82010222001FFEF7BFFB02226C
:10308000B8498431081FFEF7B9FBB64890F88800AC
:1030900078B1B34A92F87930B24A303252F82310FC
:1030A000303AD06A02F0AEFE03D10020AD4981F87B
:1030B00088000121A948FEF757F9052300227B214A
:1030C000A648FEF7C3F905237F227B21A348FEF71C
:1030D000BDF9A548FEF7DCF982464FF0864103F0C2
:1030E000B9F8814602F0C2FE04B200274FF0800812
:1030F00042463946204601F0D5FB00BF9949D1F838
:10310000800002F0B3FE04B2052300227B21934825
:103110000094FEF745F9002427464FF07B084FF056
:1031200080094B4642463946204601F097FC00BFD5
:103130008B48007800287CD100BF71E0884890F867
:10314000880040B3864991F879206531895C08018F
:1031500002F0F2FE8246204602F0EEFE83468148EF
:103160000168584602F048FF8146514603F07CF85A
:1031700080467B4890F879207A48303050F8221009
:10318000404602F009FD074602F070FE00B27549A4
:10319000A1F890001FE0724991F879206531895CAF
:1031A000601A02F0C9FE81466E480168484602F086
:1031B00023FF80466A4890F879206A48303050F8FA
:1031C0002210404602F0E8FC074602F04FFE00B233
:1031D0006449A1F890006349B1F9900002F0ACFE97
:1031E00082466048C16A504603F03EF8814602219B
:1031F000FEF742F980465A4991F88F0002F0B4FE7A
:1032000081465A4902F03CFD0746414602F0F4FE71
:103210005449C1F8940021463046FFF735FD641C3F
:103220004F48401C405DA04288DC4E4A51681068FF
:1032300000E01CE002F0E6FD54D10120484908708E
:1032400091F879206531895C0901484202F074FEE9
:103250000446434890F879204248303050F8221014
:10326000204602F099FC3F49486008603AE000249B
:1032700033E0200102F060FE80463A480168404693
:1032800002F08AFC074602F0F1FD00B23549A1F8D0
:103290009000B1F9900002F04FFE82463148C16AB9
:1032A000504602F0E1FF81460221FEF7E5F80746AD
:1032B0002B4991F88F0002F057FE81462B4902F00E
:1032C000DFFC8046394602F097FE2649C1F894009B
:1032D00021463046FFF7D8FC641C2148401C405D65
:1032E000A042C6DC00BF01F0F9FB00BF02211B4871
:1032F000FEF73AF81B49486A02F0B8FD04B21949D2
:10330000C86A02F0B3FD07B20020102123463A46F6
:10331000CDE9001001461148FEF765F8104890F815
:103320008D00B8B9802003460022114600900B485A
:10333000FEF736F80A4890F87A0010B1072809D14C
:1033400000E000BF802003460022114600900348A1
:10335000FEF726F8BDE8FC9F438200081600002017
:10336000501B0020441C00200000204000007A4434
:10337000FEF762FBFDF702FC0020FDF74FFBFEF7B6
:1033800079FA01F0B1F8FEF7F5FB01F0C1FB0E4848
:103390000E49C8640E48086508200E49C1F88C0023
:1033A00000200D4981F86500022081F87A0081F83B
:1033B0007B00FFF751FB05E0FEF7FAFEFEF76EFA21
:1033C00001F0F2FBF8E700000000E442EC1B0020F3
:1033D0000000B242441C0020501B002010B52C4AB3
:1033E0002C492D4800F038FF2C48007800283ED0AA
:1033F00000202A4908700846407828B1012802D0E8
:10340000022833D103E000BF00F094FE2EE02448F0
:1034100090F879106530405C30B101280CD002285A
:1034200012D0032820D117E001201D4981F87A002D
:10343000032081F87B0017E00320194981F87A0006
:10344000022081F87B000FE00720154981F87A00FF
:10345000022081F87B0007E00820114981F87A00FA
:10346000022081F87B0000BF00BF00BF00BF0D48F5
:1034700090F8560058B90A48007840B10020094930
:10348000C8630846C06C4864012081F8560010BD2E
:103490005C820008C4000020440000202821002095
:1034A000501B0020EC1B002000BF0349086809687E
:1034B0008842FAD170470000341300202DE9F04D06
:1034C0000E460023A0F5000C4FF00071354684B085
:1034D00002464FF07E5401EB45014FF07F48BCF1AE
:1034E000FE4F80F09F81B1F1804FC0F0DB81FE493B
:1034F0000144B1F5005F40F2A78200F58021C90CBC
:1035000001F00F07C1F307117F39A2EBC15501EBA1
:10351000030B384602F010FD6FF0030102F04BFF81
:103520004FF07E5102F038FB01460290284602F02F
:103530009BFE01902846029902F02EFB00F5006ADE
:103540006FF30B0A00905146029802F08DFE294657
:1035500002F022FB02904FF07E50009902F090FBA7
:1035600001460090019802F047FD00F500656FF3F9
:103570000B052846029902F03FFD0290514628466D
:1035800002F03AFD019902F065FE029902F06CFE2C
:10359000009902F031FD01460190284602F0FCFA44
:1035A0000146029002F028FD8246D04902F024FD37
:1035B000CF4902F0F1FA514602F01EFD8246002189
:1035C000284602F0F8FE00905146029802F014FDE1
:1035D00005460021019802F0EEFE294602F0DCFAD1
:1035E00082460146009802F0D7FA00F500656FF3B5
:1035F0000B052946009802F037FE514602F0CCFA3E
:103600008246BC49284602F0F7FC0090BA49504671
:1036100002F0F2FC8246B949284602F0EDFC514620
:1036200002F0BAFA82460146009802F0B5FA00F5B7
:1036300000656FF30B052946009802F015FE514610
:1036400002F0AAFA8246AE48784450F8371000EBF0
:10365000C700019147684FEA0B1002F06DFC009023
:103660003946504602F098FA294602F095FA019937
:1036700002F092FA009902F08FFA00F5006B6FF3F6
:103680000B0B5846009902F0EFFD019902F0ECFD9A
:10369000294602F0E9FD394602F0E6FD514602F006
:1036A000D9FD06F5006782466FF30B0739463046B1
:1036B00002F0DAFD0021009008464FF0000000F013
:1036C0000C063946584602F097FC054620F00040AB
:1036D000B0F18B4F0ADDB8EB400F07D34FF08B40B2
:1036E00060F31E052F464FF0000A1FE03846009990
:1036F00002F052FA514602F07FFC07465846009904
:1037000002F07AFC394602F047FA82460146284622
:1037100002F042FA00F500676FF30B0739462846BE
:1037200002F0A2FD514602F037FA824631460C20E3
:103730004FF000005146384602F02EFA02F0B2FB7C
:103740000646051102F0F8FB394602F083FD5146AA
:1037500002F022FA07466B4902F04EFC6A4902F079
:103760001BFA394602F048FC684902F015FA39465E
:1037700002F042FC0146664806F00F06784450F815
:10378000260002F039FC6349794451F8261002F012
:1037900003FA6149794451F8261002F0FDF905F168
:1037A0007D01FC2908D2294602F005FE04B021461D
:1037B000BDE8F04D02F020BC05F1BF01B1F5BF7FBF
:1037C00016D8294602F0F7FD214602F015FC054601
:1037D000B8EB450F1AD068000CD02846FDF75EFE06
:1037E000042808BFFDF780FE284604B0BDE8F08D30
:1037F000002D0BDA0220FCF7DFFEFDF775FE014617
:10380000204604B061F31E00BDE8F08D0220FCF7F5
:10381000D3FEFDF764FE0146204604B061F31E00AE
:10382000BDE8F08DB1F1804F3CD300BF00F1FF4106
:10383000B1F1FE4F21D200BF20F00042C5F3C751C5
:1038400010467F290DDB9729BFF651AEC1F19601D5
:103850004FF0010C0CFA01F1A1F1010C1CEA050F6B
:1038600007D00120FCF7A8FE04B0BDE8F04DFDF73D
:1038700032BE294218BF294C39E641001CBF4FF027
:103880008071B1EB400F09D91B2102F094FD024673
:103890006FF01A0310F0004FCED128E6BCF1FE4FB6
:1038A00018D224E6B1F1007F0ED336F0004105D0E6
:1038B00006F0004141F0FC552E46B7E7410018BF25
:1038C000B8EB400F78D8B1E7B1F1807F38BFA5F5EC
:1038D0000006ABD320F000416FF0FF4C104C01EB21
:1038E0000C03A3422FD31DE0001080C07EE24C3EAB
:1038F000ABAAAA3E00B038423BAA3842D49AB8BB21
:10390000AC500000FC596337C9FF753A1872313D5D
:10391000785000002C500000E04F0000000080BFF5
:10392000FFFF3F0025F000439C44A4450BD3B0F1BA
:103930007E5F18BF5FEA450C3ED0B1F1FF4F98BFE4
:10394000B3F1FF4F05D904B03146BDE8F04DFDF7A6
:10395000C0BDB0F1FF4F0FD0C5F3C7517F2909DBC0
:10396000972911DAC1F19601012202FA01F14A1EEA
:103970002A4205D0002108E015F0004F55D128E07B
:10398000294218BF012100D1022110F5000F14D0E7
:1039900020B3B0F1004F27D010F1814F4ED04FF03F
:1039A000FE41B1EB400F94BF01200020012101EB4B
:1039B000E571884239D10CE040E015F0004F02D0AB
:1039C000012936D031E0012902BF3F4804B0BDE8EB
:1039D000F08D4FF0FF4004B0BDE8F08D15F00040D1
:1039E0000ED104B0BDE8F08DB5F1FF4F1DD015F537
:1039F000000F05D015F0004F14D009B1012907D0F0
:103A00000220FCF7D9FD04B0BDE8F04DFDF759BD2B
:103A10000220FCF7D1FDFDF754FD04B080F000401A
:103A2000BDE8F08D09B1012903D004B00020BDE844
:103A3000F08D04B04FF00040BDE8F08D04B04FF0C1
:103A40007E50BDE8F08D00BF4FF07E5102F00CFCBF
:103A500005466FF0010102F0AEFC1C4902F0FAFBD2
:103A6000294602F0C9FA4FF07C5102F0F3FB0746F9
:103A70002946084602F0C0FA80F00040394602F0BC
:103A8000BBFA82461249284602F0B6FA07461149A7
:103A9000504602F0B1FA82460F49284602F0ACFACD
:103AA000514602F079F805460146384602F074F8AE
:103AB00000F5006B6FF30B0B5946384602F0D4FB50
:103AC000294602F069F8ECE5000080FFABAAAA3EA7
:103AD00000B0B8413BAAB841D49A38BB2DE9F041B7
:103AE00005460C462A48C079A8B12948B0F9080013
:103AF000A8420EDC2648B0F90C00A84209DB244895
:103B0000B0F90A00A04204DC2148B0F90E00A0423E
:103B100001DABDE8F081002D05DB802D03DA002CF1
:103B200001DB802C00DBF4E719480078012805D17F
:103B3000E1B2E8B20122FCF7D5FF26E01448007894
:103B400028B9E1B2E8B20022FCF7CCFF1DE0104832
:103B50000078022819D12046E11704EB5171C1F316
:103B6000C706E11704EB5171C910A4EBC102012192
:103B70009140CFB2E8B2074901EB0010805D784078
:103B8000E9B2044A02EB0111885500BFC1E7000009
:103B9000000000205013002070B52848FDF73CFFBE
:103BA0002648FDF703FF0925002600243EE02448AF
:103BB00000EB441000782B2804D122480555681CDE
:103BC000C5B231E01E4800EB441000787E282BD1AE
:103BD0001B4901EB4411881C1BA1FCF7A5FC20B973
:103BE00011211848643801551EE0154901EB4411B4
:103BF000881C18A1FCF798FC20B9102111486438E2
:103C0000015511E00E4901EB4411881C14A1FCF789
:103C10008BFC20B912210B486438015504E0094897
:103C200064380655701CC6B2601CC4B2044800EB70
:103C3000441000782D28BAD170BD0000CE1B0020A2
:103C4000840F0020CC1F00204C69737420437572D0
:103C500000000000526F74617465205363720000AD
:103C6000536C6565700000001FB508219248FFF78E
:103C7000B9F992480078002873D000208F49087065
:103C80000846407838B1012804D002280DD0032816
:103C900003D103E000BFFFF783F80AE10021884861
:103CA00090F879206530815400BF854890F87910EC
:103CB0006530405C152813D2DFE800F00B13233386
:103CC000435464748494A4A8ACB0B4B8BCC0D0E02D
:103CD000F10002207A4981F87A00032081F87B0004
:103CE000E5E00820744905220023CDE90032CDE942
:103CF0000210FF23724A7E32002172A001F058FEAA
:103D0000D5E008206C4901220A23CDE90032CDE933
:103D1000021064236A4A7F3201216DA001F048FE3F
:103D2000C5E00820644901220A23CDE90032CDE92B
:103D300002106423624A8032022168A001F038FE3A
:103D4000B5E008205C4901220A23CDE90032CDE923
:103D5000021064235A4A8132032163A001F028FE35
:103D6000A5E0A7E00820544901220A23CDE900324A
:103D7000CDE902106423524A823204215CA001F092
:103D800017FE94E008204C4901220A23CDE90032B5
:103D9000CDE9021064234A4A8332052157A001F07D
:103DA00007FE84E00820444901220023CDE90032C7
:103DB000CDE90210FF23424A8432062151A001F0CE
:103DC000F7FD74E008203C4901220023CDE90032D0
:103DD000CDE90210FF233A4A853207214CA001F0B9
:103DE000E7FD64E00820344901220023CDE90032D8
:103DF000CDE90210FF23324A8632014646A001F087
:103E0000D7FD54E00920FDF7E1FD50E00A20FDF761
:103E1000DDFD4CE00B20FDF7D9FD48E00C20FDF75F
:103E2000D5FD44E00D20FDF7D1FD40E00E20FDF76B
:103E3000CDFD3CE00F20FDF7C9FD38E008201E490C
:103E400001220023CDE90032CDE90210C8231C4A2B
:103E50008F32112132A001F0ABFD28E00820164975
:103E600001220023CDE90032CDE902100323144AD8
:103E70008E3210212DA001F09BFD18E008200E4984
:103E800001220023CDE90032CDE9021005230C4ABE
:103E90009032122128A001F08BFD08E0FFE70920F5
:103EA000074981F87A00022081F87B0000BF00BF3B
:103EB00000BF00BF1FBD0000840F0020282100208C
:103EC000501B00204469737020427269000000009A
:103ED00054696C6520416E69000000004C69737480
:103EE00020416E690000000057696E20416E690034
:103EF00053706F7420416E690000000054616720A8
:103F0000416E69004661646520416E6900000000F1
:103F100042746E205350540042746E204C50540032
:103F20004C6973742043757200000000526F746115
:103F30007465205363720000536C65657020546D86
:103F4000000000002DE9F843044602465248694645
:103F5000B0EB420F09D94FF0E640B0EB420F94BFEF
:103F600000204FF0FF30009030E04C4B22F000403A
:103F7000834271D94A49204602F03EF802F03AF9EC
:103F8000804601F073FF00F0030000904549404671
:103F900002F032F805464449404602F02DF8064644
:103FA0004249404602F028F807464149404602F09F
:103FB00023F8214602F04EF9394602F055F9314610
:103FC00002F052F9294602F04FF904462546009CBA
:103FD000002C45DB294614F0010F08461ED002F0E4
:103FE0000BF80546334902F007F8334901F0D4FDD8
:103FF000294602F001F8314901F0CEFD294601F0D1
:10400000FBFF4FF07E5101F0C7FD14F0020F08BF17
:10401000BDE8F88380F00040BDE8F88301F0ECFFD4
:104020000646274901F0E8FF264902F013F9314618
:1040300001F0E2FF244901F0AFFD314601F0DCFF61
:10404000294601F0D9FF294601F0A6FD14F0020F20
:10405000E0D1BDE8F883FFE71046FDF74BFAB4E77F
:104060006800B0F17F4F09D22846FDF717FA0428FF
:1040700008BFFDF739FA2846BDE8F88306D10120CC
:10408000FCF79AFABDE8F843FDF725BA2846BDE8E3
:10409000F843FDF71BBA0000B61F927E490E494651
:1040A00083F9223F1A61342C0020A23300A0FD398D
:1040B0000000C93FB93AB2BACA9F2A3DDDFFFFBE30
:1040C000336D4C39DA82083CA0AA2ABE10B5012013
:1040D000054981F87C000548007920B1FDF7C4FD51
:1040E00000200249087110BD501B0020442100200F
:1040F00000200B4908700B49C8620B4808630B4845
:10410000486300208863C863094808640846C06C97
:1041100048640846006D8864012081F856007047A5
:10412000501B0020EC1B002000006442000040C235
:104130000000204110B54448407810B1012840D11A
:1041400045E042480078002840D0404890F8791077
:104150006530405C002816DD3C4890F879106530E9
:10416000405C401EC1B2394890F8792065308154D6
:104170003749086B374901F00FFD354908630020C6
:1041800081F8560022E0314890F88900D0B12F48DC
:1041900090F87A10401C405C401EC1B22B4890F849
:1041A000792065308154294991F87A20491C895C2D
:1041B000491E6FF0380201FB02F001F0BDFE2449F8
:1041C00008633EE00120224981F8560039E01F488B
:1041D000007810B31D4890F879106530415C65385F
:1041E00090F87A20401C805C401E814216DA174805
:1041F00090F879106530405C401CC1B2134890F8CB
:104200007920653081541249086B124902F02CF86C
:104210000F490863002081F8560011E00B4890F820
:10422000890048B10021094890F87920653081540F
:1042300000200749086304E00120054981F8560081
:1042400000BF00BF10BD000028210020501B00202F
:10425000EC1B0020000064422DE9FC5F05460E4681
:10426000174601229A49081FFDF7C8FA012298490A
:104270000831081FFDF7C2FA012295491031081FC5
:10428000FDF7BCFA012292491831081FFDF7B6FA72
:1042900001219048FDF768F800218E48FDF772F87B
:1042A0008D498C48FDF798F889493039486C01F000
:1042B000DDFD0FFA80F8894890F879206530805C40
:1042C00005EB40118348FDF748F8C0F1760404EB94
:1042D000D47040100A300FFA80F9804890F87910B5
:1042E0006530405C05EB4013424649467948FDF78E
:1042F00066F87B497748FDF76FF8784890F87920A1
:104300006530805C06EB40117248FDF726F8C0F17D
:10431000800404EBD47040100FFA80F86F4890F8D6
:1043200079106530405C06EB4013742241466948C1
:10433000FDF745F866493039C86B01F097FD04B2C6
:10434000282023463922002100906248FDF728F8F2
:104350006248007800287DD100245EE05F4890F834
:10436000870030B35D4991F879206531895CC1EBF4
:10437000C102C2EB811001F0DFFD0190204601F087
:10438000F3FD834652483038C16A584601F034FE86
:104390008246544901F000FC8146019901F064FF16
:1043A000804601F063FD00B249493039A1F854005C
:1043B0001AE04A4991F879206531895C601A01F068
:1043C000BBFD824642483038C16A504601F014FEB7
:1043D0008146444901F0E0FB804601F047FD00B210
:1043E0003B493039A1F8540039493039486B01F064
:1043F0003DFD0FFA80F804EBC40007EB40103021BC
:10440000CDE9001032483038B0F95410302342461C
:104410003048FCF7FAFF601CC4B2304890F87A10BC
:10442000401C405CA04299DC294A303A116BD06AAA
:1044300001F0E8FC39D101202849087091F8792071
:104440006531895C4942C1EBC102C2EB811001F0C8
:1044500073FD00E004E01E4930390863C86224E0BF
:1044600000241BE01A493039C86A01F0FFFC2830EB
:10447000C4EBC401C1EB841108440FFA80F804EBCB
:10448000C40007EB401030210B460022CDE900109C
:1044900041461048FCF7B9FF601CC4B20F4890F8C1
:1044A0007A10401C405CA042DCDC02210948FCF789
:1044B0005BFF0A4890F88D0038B98020034600223F
:1044C000114600900348FCF76BFFBDE8FC9F00001D
:1044D0001C1C00201600002042820008501B0020F7
:1044E000438200080000204201200749087008208C
:1044F00048700020488088808871C8710881488190
:104500007F208881C88170470000002010B54FF4DB
:1045100000610248FBF7E6FF10BD000050130020C9
:104520002DE9F04704460D46904699462E460DE08B
:10453000274605E031463846FFF7D0FA781C07B227
:1045400004EB0800B842F5DC701C06B205EB09006C
:10455000B042EDDCBDE8F0872DE9F05F06460F467E
:1045600090469946B8F1010F02DBB9F1010F01DA6B
:10457000BDE8F09F06EB0800401E0FFA80FA07EB3B
:104580000900401E0FFA80FB344609E039462046F8
:10459000FFF7A4FA59462046FFF7A0FA601C04B2C0
:1045A0005445F3DD3D4609E029463046FFF796FACB
:1045B00029465046FFF792FA681C05B25D45F3DDC7
:1045C00000BFD5E72DE9F04104460F4616462546C3
:1045D00005E039462846FFF781FA681C05B2A019A4
:1045E000A842F6DCBDE8F081F8B504460D46164653
:1045F0001F460748007808B1012000E00020FBB208
:10460000F2B2E9B20090E0B2FCF716FAF8BD000091
:10461000000000202DE9F04707468846924699465B
:10462000089C012C07DA4B46524641463846FFF7B4
:1046300077FFBDE8F087022101FB14A10AB2391906
:1046400008B24B464146FFF76BFF6000484518DA59
:10465000022000FB149003B208EB040001B22246D2
:104660003846FFF75DFF022202FB149213B208EBFB
:10467000040211B207EB0A02121B10B22246FFF726
:104680004FFF604205B24AE0604206B243E006FBDB
:1046900006F005FB050104FB04F0814239DC002E25
:1046A0000DDB002D0BDB08EB0902121B2A4411B2B3
:1046B00007EB0A02121B324410B2FFF70FFA002E6A
:1046C0000BDC002D09DB08EB0902121B2A4411B296
:1046D0003A19324410B2FFF701FA002E0CDB002D1C
:1046E0000ADC08EB04022A4411B207EB0A02121B8F
:1046F000324410B2FFF7F2F9002E0ADC002D08DC7C
:1047000008EB04022A4411B23A19324410B2FFF7FE
:10471000E5F9701C06B2A642B9DD681C05B2A542D7
:10472000B2DD00BF85E72DE9FC5F0746884691466C
:104730009A460C9C012C07DA53464A4641463846B5
:10474000FFF70AFFBDE8FC9F38190FFA80FB0EE067
:1047500041465846FFF7C2F908EB0A00401E01B275
:104760005846FFF7BBF90BF101000FFA80FB07EB8E
:104770000900001B5845EBDC08EB040000B2019077
:104780000EE038460199FFF7A9F907EB0901491E28
:1047900008B20199FFF7A2F90198401C00B20190FC
:1047A00008EB0A00011B01988142EADC604205B275
:1047B00057E0604206B250E006FB06F005FB05003C
:1047C00000B2009004FB04410098814243DB04FBEB
:1047D00004F0011B009881423DDC002E0FDB002D10
:1047E0000DDB08EB0A02121B521E2A4411B207EB22
:1047F0000902121B521E324410B2FFF76FF9002E4D
:104800000CDC002D0ADB08EB0A02121B521E2A44A4
:1048100011B23A19324410B2FFF760F9002E0DDBE5
:10482000002D0BDC08EB04022A4411B207EB09024D
:10483000121B521E324410B2FFF750F9002E0ADC50
:10484000002D08DC08EB04022A4411B23A19324464
:1048500010B2FFF743F9701C06B2A642ACDD681C2B
:1048600005B2A542A5DD00BF6CE70000F8B504461F
:104870000D4617460A484078281A06B2002E00DA7C
:1048800000260748007808B1012000E00020044A13
:1048900000905378F1B2E0B23A46FCF7D9FAF8BD8D
:1048A000000000202DE9F04107460C46164625463B
:1048B00005E029463846FFF711F9681C05B2A01932
:1048C000A842F6DCBDE8F0812DE9F84F074688469E
:1048D00016469946DDF828B0F01DC11700EB51715E
:1048E000C91009B20091002523E000241DE02046F4
:1048F000E11704EB5171CA10009905FB01211BF867
:1049000001A0E11704EB5171C910A4EBC102012110
:10491000914001EA0A0131B108EB050211B23A19DE
:1049200010B2FFF7DBF8601C04B2B442DFDB681C96
:1049300005B24D45D9DBBDE8F88F000002460021E5
:1049400001E0491C521C10780028FAD10A4840782E
:10495000182804DBC1EBC100400000B270470648D4
:104960004078102803DB01EBC10000B2F6E701EB51
:10497000810000B2F2E70000000000201FB50446ED
:10498000224606A16846FBF747FC054AB2F9041027
:10499000B2F902006A46FFF769FF1FBD256C75007A
:1049A000000000202DE9FF470546284601F05EFA89
:1049B0008146484601F0C0FA8246294601F04AFC89
:1049C0008046154901F018FB07464FF07C5101F075
:1049D000E3F8064601F04AFA0446002C00DA002407
:1049E000632C00DD632423464A460CA16846FBF78E
:1049F00013FC0C4AB2F90410B2F902006A46FFF740
:104A000035FF6846FFF79AFF06494988084400B217
:104A100004494880BDE8FF870000C84225642E2570
:104A2000303264000000002010B50446084AB2F994
:104A30000410B2F902002246FFF718FF2046FFF7E4
:104A40007DFF03494988084400B20149488010BDF0
:104A50000000002010B5FCF737F910BD30B5012477
:104A6000064DEC712C46208161818418641E24B2AD
:104A7000AC81CC18641E24B2EC8130BD0000002053
:104A800010B5044600218120FCF707FA00212046DA
:104A9000FCF703FA10BD0000014A50809180704776
:104AA000000000200149087070470000000000204D
:104AB0000549884203D11821044A517002E00821B7
:104AC000024A517070470000428200080000002036
:104AD000014988717047000000000020002004494F
:104AE000C871088148817F208881C8817047000093
:104AF0000000002010B5044624B10021AE20FCF7D0
:104B0000CCF903E00021AF20FCF7C7F910BD00008D
:104B100004210848C1700C21017103214171072152
:104B200081715221C1710A2101721521417208213E
:104B300081727047501B0020FF201A4981F87E00C7
:104B40001E21184880F87F103C2180F88010192120
:104B500080F88110322180F882103C2180F8831087
:104B60001E2180F88410192180F88510962180F884
:104B70008610012180F8871080F88810002180F8C5
:104B8000891080F88A1080F88B1080F88C10012131
:104B900080F88D10002180F88E1080F88F1080F83A
:104BA00090107047501B00202DE9F04100BFFFF727
:104BB00051FF00BFE24890F87B0005287DD2DFE876
:104BC00000F003FEFDFCFB00DD4890F87C000028AF
:104BD00074D0DC480078002871D00020D9490870D2
:104BE0000021D948FCF7C7FBFEF75EFCD449C1F8A9
:104BF0009800002081F87C00084690F8910081F828
:104C00007A00084690F87900401C81F8790008463F
:104C100090F8921090F8792065308154C84991F845
:104C2000930001F0A1F9C64991F87920C74941F8EC
:104C30002200C34890F87A00022820D1C04991F898
:104C400079206531895C4942C1EBC102C2EB811018
:104C500001F072F9BE49C8620846C06A08630020C4
:104C600048638863BB48C86308640846C06C4864EE
:104C70000846006D8864012081F856006FE0B04955
:104C800091F879206531895C0901484201F054F9B5
:104C90000446AB4890F87920AC4850F822102046E2
:104CA00000F07AFFA949303908600846006848607A
:104CB000A34890F87910A54802E03DE190E08CE02F
:104CC00050F82100A1493039C8620020486288624A
:104CD0009B4890F87A10401C405C01281DDD9849E3
:104CE00091F87A20491C895C481E01F025F9074695
:104CF00039464FF0864000F0C3FF0546904991F8D1
:104D000079206531885C01F02FF90646294601F0CB
:104D100073F90446FCF7BCFB00E000208B493039F6
:104D2000C1F880000846D0F88000C1F88400002057
:104D300081F88800824890F87A00072805D14FF062
:104D400086408549C860086109E07D4890F87A008E
:104D5000092804D14FF08140804948608860784834
:104D600090F87A00082802D1FEF716FF1DE074487B
:104D700090F87A00042803D17948FCF74DFE14E03E
:104D80006F4890F87A00052805D17549891C881E5E
:104D9000FCF72EFE09E06A4890F87A00062804D154
:104DA0006F49C91C881EFCF723FE654890F89400E3
:104DB00050B10020624903E025E021E01DE019E048
:104DC00081F87A0081F8940001205D49087081F82B
:104DD0009500002081F87B000BE0FDF781F808E0EA
:104DE000574890F8950010B1FDF714F901E0FCF771
:104DF0007FFFA1E000F022FB9EE0FDF72DFE9BE08F
:104E0000FDF77AFE98E04E4890F87C0020B900BF8C
:104E1000FFF77CFB00BF00BF4A48007820B1FEF7D7
:104E200043FB4749C1F89800454890F87A000A28A2
:104E300024D2DFE800F005080B0E1114171A1D200C
:104E400000F02CFB1AE0FCF72BF917E0FEF7C6FA8E
:104E500014E0FCF72BFE11E0FDF7FCF90EE0FDF786
:104E60009DFD0BE0FDF756FA08E000F089F805E03B
:104E7000FEF7FAFE02E0FCF703FC00BF00BF30487B
:104E800090F87C00E8BB2E4890F89000002852DD96
:104E90002B4890F87A0001284DD02A48007828B194
:104EA000FEF702FB2649C1F8980044E0FEF7FCFA41
:104EB0002349D1F89810411A214890F89000294AC6
:104EC00052F8200000EB4002C2EBC010B1EBC00F63
:104ED00031D31B4890F87A0008B9012000E0002087
:104EE000174981F89400084690F879106530405CC5
:104EF000134981F8920091F87920144951F8220061
:104F000000E018E000F0F8FF0D4981F89300084632
:104F100090F8940018B1144890F8B00002E00848E6
:104F200090F87A00064981F89100012081F87A0012
:104F3000032081F87B0000BF00BFBDE8F0810000C6
:104F4000501B00202821002016000020741C002087
:104F5000EC1B002000002041DC1C00201C21002054
:104F60003C0000204482000830200020002003493B
:104F7000C8604FF08640086170470000DC1C0020CC
:104F800010B500F023F80F480078D0B100200D498B
:104F900008700846407838B1012804D0022806D0AD
:104FA00003280DD104E000BFFDF7FAFE08E000BFC2
:104FB0000220054981F87A00032081F87B0000BFB8
:104FC00000BF10BD28210020501B00202DE9FC4708
:104FD000BE49BF48FCF700FABE4890F8792065301A
:104FE000805CBD4A02EB4011B948FCF7B6F900F10C
:104FF0000804204600F0A0FFB84988620222091D7B
:10500000081FFCF7FBFB0222B4492831081FFCF7FC
:10501000F5FBB04890F87920B048303000EB8201C1
:105020000222001FFCF7EAFB0522AD49081FFCF72E
:10503000E5FBAA4890F8880078B1A64A92F8793042
:10504000A64A303252F82310303AD06A00F0DAFE25
:1050500003D10020A14981F8880001219C48FCF778
:1050600083F901219A48FCF78DF99A4800780028C5
:1050700059D1002430E0974991F879206531895C55
:10508000601A00F059FF824694480168504600F0CB
:10509000B3FF81464FF0814100F07EFD80468D4890
:1050A00090F879208D48303050F82210404600F0BA
:1050B00073FD07464FF07E5101F0D6F8064600F02A
:1050C000D5FE05B2844800EB44135E222946804891
:1050D000FCF775F9601CC4B27E4890F87A10401C49
:1050E000405CA042C7DC7D4A5168106800F08AFE2F
:1050F00035D101207749087091F879206531895CB4
:105100000901484200F018FF0446724890F87920DF
:105110007248303050F82210204600F03DFD6F49B3
:10512000486008601BE0002412E06C49086800F049
:105130009DFE2101091D0844401E05B2664800EB92
:1051400044135E2229466248FCF739F9601CC4B258
:10515000604890F87A10401C405CA042E5DC0020DA
:105160005F491039486131208023002211460090A8
:105170005748FCF75CF92F207E230122114600904E
:105180005348FCF754F9534A92F87930534A303275
:1051900052F82310303AD06A00F034FE3AD14F4A28
:1051A0005168106800F02EFE34D1012430E04949E6
:1051B00091F879206531895C4A4A505CFCF79AF88D
:1051C000054647481038456105202B2340F6FF72FD
:1051D000002100902846FCF7B5F801464048083009
:1051E00040F82410601E06B23D49083131F8200015
:1051F00007B20FFA84F8084630F824000FFA80F955
:105200004B46424639463046FFF7EEF900BF641C74
:105210007F2CCCDB00212E48FCF7B4F832492C4817
:10522000FCF7DAF8522217212948FCF71CF92C491F
:105230001039486900F080FE06464FF08B4100F0BF
:105240001FFD0546294900F0D7FE04462046FFF71A
:10525000A9FB00BF26A11E48FCF79BF802211C48B1
:10526000FCF782F81D49486A00F000FE04B21B49B1
:10527000C86A00F0FBFD05B2002010235A2229461F
:10528000CDE900401248FCF7AEF815481038C16867
:105290004FF0864000F0E8FF054600F0E7FD04B25D
:1052A000212080233522214600900948FCF778F818
:1052B000084890F88D0038B9802003460022114636
:1052C00000900348FCF76CF8BDE8FC8743820008B7
:1052D00016000020501B0020440E0020441C00201B
:1052E000EC1C002018000020428200083333534099
:1052F000560000002DE9F04FA1B005468B4616463A
:105300001F4629464848FBF7C9F859464648203009
:10531000FBF7C4F80120444981F8A1000846C0F811
:10532000AC6080F8B0700020404981F87A004048B5
:10533000FFF7BEFB3C48FFF701FB00F0FF083A49CE
:10534000203101A8FBF7AAF800243AA101A8FBF735
:105350009FF881460FE04846FFF7F0FA00F0FF0A99
:10536000C24500DDD046601CC4B232A10020FBF76C
:105370008FF8814600BFB9F1000FECD108F10800A9
:1053800000F0DAFD2849C1F8D000C1F8CC00D1F80E
:10539000D000294900F0FCFD05D227482249C1F878
:1053A000D000C1F8CC00102101EB041000F0C4FDC6
:1053B0001D49C1F8C800C1F8C4000846D0F8CC1097
:1053C0004FF0864000F050FF82464FF0804100F0E1
:1053D00057FC1549C1F8D4000846D0F8C40080F045
:1053E000004A4FF08041504600F03EFF0E49C1F8A0
:1053F000BC000846D0F8C4104FF0864000F034FFDF
:1054000082464FF0804100F03BFC0749C1F8C000E4
:105410000846D0F8C000C1F8D8000420034981F83C
:105420007B0021B0BDE8F08F30200020501B002011
:10543000438200080A000000000070420020114969
:1054400081F8A100C1F8B4000F48C1F8BC000F48B2
:10545000C1F8C0000846D0F8C000C1F8D8000C4818
:10546000C1F8D4004FF08440C1F8C400C1F8C800AE
:105470000848C1F8CC00C1F8D0000420064981F8E2
:105480007B00704730200020000008C20000484226
:10549000000050410000CC42501B002010B500F02D
:1054A0008FF8424AD2F8C010D2F8BC0000F0AAFC33
:1054B0000FD13E49D1F8C000002100F069FD08D2AB
:1054C0003A4890F8B0003A4981F87A00042081F80F
:1054D0007B0038480078002866D0344AD2F8C010E3
:1054E000D2F8BC0000F08EFC5ED13049D1F8C0008B
:1054F000002100F04DFE57D200202E4908702B48A5
:1055000090F8A10068B12948D0F8C40080F00044A8
:105510004FF08041204600F0A7FE2449C1F8C000AA
:1055200042E024484078F8B1012804D0022834D061
:10553000032838D132E01D48D0F8A40000781B4978
:1055400091F8A81088420EDA1848D0F8A400007824
:10555000164991F8AA1008441449D1F8A41008700B
:105560000120154908711EE01048D0F8A400007809
:105570000E4991F8A91088420EDD0C48D0F8A4001D
:1055800000780A4991F8AA10401A0849D1F8A410E5
:10559000087001200849087105E000BF0748034969
:1055A000C1F8C00000BF00BF10BD000030200020C7
:1055B000501B00202821002044210020000008C2A8
:1055C0002DE9F04FA3B0ED4A92F8B010D2F8AC003C
:1055D000FDF708FDE94890F8A10000287DD00322DE
:1055E000E649C031081FFCF709F90020FFF75AFA15
:1055F000E249D1F8C40000F039FC0FFA80F9DF4924
:10560000D1F8CC0000F032FC0FFA80FADB49D1F877
:10561000BC0000F02BFC00B2D8490290D1F8D400B5
:1056200000F024FC0FFA80FB02204B46524600900B
:1056300058460299FEF7EEFF0120FFF733FACF49F3
:10564000D1F8C40000F012FC0FFA80F9CB49D1F870
:10565000CC0000F00BFC0FFA80FAC849D1F8BC006E
:1056600000F004FC00B2C5490290D1F8D40000F06B
:10567000FDFB0FFA80FB02204B4652460090584635
:105680000299FFF750F8BD48FFF758F9C7B2BB4978
:10569000D1F8BC0000F0EAFB0C300FFA80FAB749F1
:1056A000D1F8D40000F0E2FB8346B449D1F8CC0035
:1056B00000F0DCFB00B2A0EB070909EBD9700BEBA3
:1056C000600000B251460290FFF7E6F9AB48FFF7E1
:1056D000ABF9AA49203103A800E046E0FAF7DEFE64
:1056E000A649D1F8BC0000F0C1FB00B200F11C06D5
:1056F000A3A103A8FAF7CCFE054625E02846FFF74C
:105700001DF900F0FF089D49D1F8D40000F0AEFB70
:1057100083469A49D1F8CC0000F0A8FB00B2A0EB78
:10572000080909EBD9700BEB60000FFA80FA31B26F
:105730005046FFF7B1F92846FFF776F9103690A1E9
:105740000020FAF7A5FE0546002DD7D10220FFF76D
:10575000A9F98C4890F88D00002805D180231A46BD
:1057600000210846FEF7DCFE04E1864890F88B0035
:10577000C0B1002412E0204604EBD0714910A4EB24
:10578000410109B9552100E0AA217F4A1268125D42
:1057900011407D4A12681155601C84B27B48008814
:1057A0008442E8DB7A48FFF783F9744991F8A8103E
:1057B000724A92F8A920881A00F0BEFB82466F490F
:1057C000D1F8A41009786D4A92F8A920881A00F03F
:1057D000B3FB8346514600F053FA81466D4900F011
:1057E0000BFC6649C1F8B8000322B831081FFCF76A
:1057F00005F803226149C031081FFBF7FFFF0020B5
:10580000FFF750F95D49D1F8BC0000F02FFB0FFA0B
:1058100080F95A49D1F8D40000F028FB0FFA80FA39
:10582000022020236622494600905046FEF7F2FEF1
:105830000120FFF737F95149D1F8BC0000F016FB01
:105840000FFA80F94D49D1F8D40000F00FFB0FFAA0
:1058500080FA022020236622494600905046FEF737
:1058600062FF4649D1F8BC0000F000FB14300FFA8B
:1058700080F94249D1F8D400474900F08DF98346B8
:1058800000F0F4FA0FFA80FA012007235C2249465F
:1058900000905046FEF747FF3849D1F8B40000F0B9
:1058A000E5FA0FFA80F93549D1F8BC0000F0DEFACC
:1058B00016300FFA80FA3149D1F8D400374900F098
:1058C0006BF9029000F0D2FA0FFA80FB03234A46EC
:1058D00051465846FEF724FE2849D1F8BC0000F096
:1058E000C5FA0E300FFA80F92449D1F8D4002A49BC
:1058F00000F052F9834600F0B9FA0FFA80FA4946EF
:105900005046FFF7C9F81D48FFF78EF81B49D1F83C
:10591000BC0000F0ABFA0E300FFA80F91749D1F84D
:10592000D4001F4900F038F9834600F09FFA0FFABF
:1059300080FA49465046FFF7AFF81049D1F8A41055
:105940000878FFF71BF817A10C48FAF7EDFD20B90E
:105950000C4991F87E00FFF793F80220FFF7A2F8B8
:10596000084890F88D0028B980231A46002108467F
:10597000FEF7D6FD23B0BDE8F08F000030200020F8
:105980000A000000501B002010000020140000201E
:10599000438200080000B0420000A0400000E04048
:1059A00000009C424469737020427269000000004C
:1059B0002DE9F05F04460D4616461F46DDE90CABA7
:1059C000DDE90A8921460E48FAF768FD0C4880F89F
:1059D000A050C0F8A46080F8A87080F8A98080F872
:1059E000AA90C0F8ACA080F8B0B00020044981F8BB
:1059F000A100044981F87A00FFF720FDBDE8F09F7F
:105A000030200020501B0020491058BFC1F14041F8
:105A10005B1058BFC3F140438B42EFF300807047E7
:105A200051EA030C17D41CF5801F58BFBCF5801F2A
:105A300000F10680994218BF704708BF9042704736
:105A400007D711F5801F58BF13F5801F19D499424D
:105A50007047894270471CF5801F08D5BCF5801F30
:105A6000F7D58B4218BF704708BF824270474FF48A
:105A7000001C1CEB410F38BF1CEB430F01D28B42C3
:105A8000704770B500F008F8922449004FF00051BB
:105A90004FF08053FFF7B8BF0EF1020E2EF0030E49
:105AA0005EF8046B364205D4012A43EB030515F575
:105AB000001F12D8012841EB010C1CF5001F0CD867
:105AC0000ED14FEAD17C15F5001F0CEB4C0C0CF1FC
:105AD000020C08BF4CEBD37C04E04FF0080C01E053
